:100000000C9442000C946A000C946A000C946A00F0
:100010000C946A000C946A000C946A000C946A00B8
:100020000C946A000C943A0C0C94630C0C948C0C99
:100030000C94300D0C94B50C0C94DE0C0C94070D44
:100040000C94BF0B0C94E80B0C94110C0C946A00EC
:100050000C9439080C94EC050C946A000C946A001A
:100060000C946A000C946A000C946A000C946A0068
:100070000C940E080C943A060C946A00190164085A
:100080006C0E310111241FBECFEFD0E1DEBFCDBF1A
:1000900011E0A0E0B1E0EAE8F6E202C005900D92BE
:1000A000A637B107D9F713E0A6E7B1E001C01D926A
:1000B000A830B107E1F710E0C2E8D0E004C0229711
:1000C000FE010E94DA10CC37D107C9F70E946E08F2
:1000D0000C9438130C9400001092800110927F0150
:1000E00080E280930E0180930F0180931001809332
:1000F0001101089546E051E01AC0882359F0D90152
:10010000A25FBE4FFA01E20FF31F81E06C91908174
:10011000691380E02F5F3F4F2430310571F7811163
:100120000AC04C5F5F4F91E04E30590721F020E04C
:1001300030E081E0E2CF0895CF93DF9380E00E942A
:10014000A104BC01882777FD8095982F0E947F0F1E
:100150002DEC3CEC4CEA50E40E94331020E030E0FF
:1001600040E85AE30E943310FB01462F5F2F682FAF
:10017000792F4093D9015093DA016093DB0170939A
:10018000DC0122E030E082E492E00E948A0A69E227
:1001900071E082E492E00E94BA0822E030E04AE98D
:1001A00059E969E97FE382E492E00E948C0A2AE936
:1001B00039E949E95FE36091D9017091DA018091F1
:1001C000DB019091DC010E94E00E18165CF0289A89
:1001D0004AE050E064E070E082E492E0DF91CF9189
:1001E0000C9479092898DF91CF9108954398449A07
:1001F000459A0895439A4498459A0895439A449A93
:1002000045980895EF920F93E12C01E028E040E833
:1002100055E260E070E082E492E00E940C073B9AB5
:100220003C9A3D9A3E98209A50980F91EF900C94EA
:10023000FE00EF920F936DE271E081ED91E00E947C
:10024000110B83E0E82E04E024E131E047E151E0C6
:100250006BE171E081E891E00E94EE030F91EF9075
:10026000089581ED91E00C94A00ACF93DF93D1E043
:1002700018C082E492E00E946505C82F682F81EDC6
:1002800091E00E945A0BCA3061F420E030E042E372
:1002900050E06FE971E081ED91E00E946D0BD09329
:1002A000D80182E492E00E943A05892B11F7DF9190
:1002B000CF9108950F931F930E949C000E943501D7
:1002C00080911201909113018130910569F024F41D
:1002D000892B09F49BC01FC18230910509F4D3C05A
:1002E000039709F018C1E8C00E94FE00369918C0B3
:1002F0001092760110921301109212014AE050E020
:1003000061E070E082E492E00E9479090E940605B3
:1003100060937701709378018093790190937A01CB
:1003200081E891E00E94A402882309F4F4C083329A
:1003300021F41F910F910C946C0020917F0130915A
:100340008001F901E25FFE4F8083C901019690931D
:10035000800180937F010497C9F50E947A00882369
:10036000F1F010927E0110927D0110921301109213
:10037000120181E0809376014AE050E061E070E094
:1003800082E492E00E9479090E9406056093770159
:10039000709378018093790190937A0115C081E080
:1003A00090E090937C0180937B0182E090E09093B9
:1003B00013018093120180917D0190917E0101963D
:1003C00090937E0180937D010E946C0080917D015D
:1003D00090917E01039709F09EC04AE050E062E0F0
:1003E00070E082E492E00E9479098EE190E09093BF
:1003F0007C0180937B0182E090E0909313018093D5
:10040000120110927E0110927D0185C00E94FA00B7
:1004100081E891E00E94A4028A3251F48091760131
:10042000882331F081E090E09093130180931201D2
:10043000369B05C080917601882309F458C00E943C
:100440000605009177011091780120917901309192
:100450007A01601B710B820B930B6033754781052A
:10046000910508F458C083E090E0909313018093C5
:1004700012014AE050E063E070E082E492E01F91F4
:100480000F910C9479090E94F60080917B01909164
:100490007C01892B09F439C068EE73E080E090E0BC
:1004A0000E94180580917B0190917C0101979093A7
:1004B0007C0180937B012FC00E94F60081E891E0CF
:1004C0000E94A4028A3231F481E090E090931301FB
:1004D00080931201369B04C080917601882371F0CD
:1004E000369919C08091760181110FC014C081E046
:1004F00090E09093130180931201A1CF81E090E0EE
:100500009093130180931201EBCF81E090E09093E0
:100510001301809312011F910F910895DC01189629
:100520008D919C9119978617970769F019967C937E
:100530006E9318975C96ED91FC915D97309719F04A
:100540001A968C91099408954F925F926F927F92C0
:10055000AF92BF92CF92DF92EF92FF920F931F93D1
:10056000CF93DF93EC01A12CA8C00A2D10E0EC8101
:10057000FD81E00FF11F60E080810E946C04B12CCE
:1005800068018EC0EB2CF12C8F81E881F981EC0D94
:10059000FD1DB89EE00DF11D11249A8580819813F0
:1005A0003CC00E9406054E845F846888798864197F
:1005B0007509860997094A8C5B8C612C712C64152E
:1005C00075058605970550F0EA81FB81EE0DFF1D4C
:1005D00080810E944804882309F498C00E9406057F
:1005E0004E845F846888798864197509860997093B
:1005F000488C598C612C712C6415750586059705FE
:1006000008F493C0EA81FB81EB0DF11D80810E940B
:100610004804813009F089C07FC00E9406054E84DD
:100620005F84688879886419750986099709488CF8
:10063000598C612C712C641575058605970578F128
:10064000EA81FB81EE0DFF1D80810E94480481112B
:1006500026C0EC81FD81E00FF11F61E080810E94E6
:100660006C042F812E9DC0012F9D900D1124E881D7
:10067000F981EC0DFD1DE80FF91FF0808E859F8537
:10068000A889B9898A8B9B8BAC8BBD8B0E94060590
:100690006E877F87888B998BF11015C005C0B39446
:1006A0008E81B81608F46ECFEC81FD81E00FF11F4A
:1006B00061E080810E946C04A3948F81A81608F4E5
:1006C00054CF80E040C08B85F81239C00E940605E7
:1006D0000A891B892C893D89601B710B820B930B46
:1006E0000E891F8920E030E0061717072807390711
:1006F00010F525C081E090E09D878C87FA8661E047
:1007000070E0CE010E948E028A851DC063E070E019
:10071000CE010E948E0262CF62E070E0CE010E94A4
:100720008E028A858B871A86BFCF88859985039725
:1007300009F0B5CFB9CF8C859D850196DDCF8A852F
:10074000F812D8CFBECFDF91CF911F910F91FF90BC
:10075000EF90DF90CF90BF90AF907F906F905F90C1
:100760004F900895FF920F931F93CF93DF93EC0167
:10077000F12C13C00F2D10E0EA81FB81E00FF11F77
:1007800060E080810E941A04EA81FB81E00FF11F82
:1007900061E080810E946C04F3948E81F81650F31E
:1007A000F12C13C00F2D10E0EC81FD81E00FF11F43
:1007B00061E080810E941A04EC81FD81E00FF11F4D
:1007C00061E080810E946C04F3948F81F81650F3ED
:1007D000DF91CF911F910F91FF900895EF920F93AA
:1007E000FC0153834283358324830683E78271832C
:1007F000608316861786108A118A128A138A148AD1
:10080000158A8CE291E0978B868B82E390E0918F42
:10081000808F88EE93E0938F828F158E148E1286D0
:1008200013861186108615861486CF010F91EF90DE
:100830000C94B203982F977021E030E0092E01C08C
:10084000220F0A94EAF786958695869581F0813085
:1008500089F0823091F08330D1F412C080812095EC
:10086000822302C08081822B80839FBF0895EAE2A9
:10087000F0E008C0E7E2F0E005C0E4E2F0E002C02A
:10088000E1E2F0E09FB7F894662341F3EBCF0895DF
:10089000982F977021E030E001C0220F9A95EAF777
:1008A00086958695869539F0813041F0823049F001
:1008B000833051F00895E9E2F0E008C0E6E2F0E0AC
:1008C00005C0E3E2F0E002C0E0E2F0E090819223B4
:1008D00081E009F480E00895982F977021E030E0DE
:1008E000092E01C0220F0A94EAF78695869586950F
:1008F00081F0813089F0823091F08330D1F412C0E0
:1009000080812095822302C08081822B80839FBFBB
:100910000895EBE2F0E008C0E8E2F0E005C0E5E2AF
:10092000F0E002C0E2E2F0E09FB7F894662341F302
:10093000EBCF089580E480937C0087E880937A0071
:100940000895CF93DF931F92CDB7DEB79091270123
:10095000913031F489830E949A0410922701898191
:1009600087702091280140E4249F90011124822B5C
:1009700080937C0080917A00806480937A008091DB
:100980007A0086FDFCCF2091780030917900932F7A
:1009900080E0FC01E22B9F01C9010F90DF91CF9114
:1009A00008958091DE019091DF01A091E001B09166
:1009B000E1013091DD01232F2D5F2D3720F40196C9
:1009C000A11DB11D05C0232F2A570296A11DB11DDF
:1009D0002093DD018093DE019093DF01A093E0017D
:1009E000B093E1018091E2019091E301A091E401D3
:1009F000B091E5010196A11DB11D8093E201909394
:100A0000E301A093E401B093E50108950F931F93D0
:100A10008FB7F8940091DE011091DF012091E00181
:100A20003091E1018FBFB801C9011F910F91089565
:100A30008F929F92AF92BF92CF92DF92EF92FF92EE
:100A40006B017C010E9406054B015C010E940605BA
:100A5000681979098A099B096C157D058E059F0522
:100A6000A8F3FF90EF90DF90CF90BF90AF909F9052
:100A70008F900895FC0120893189C9010895DC0116
:100A800050962D913C915197232B49F05496ED911E
:100A9000FC915597E80FF91F268930E002C02FEF2F
:100AA0003FEFC9010895FC01118A108A158A148A42
:100AB000138A128A0895FC0124813581C9010895A1
:100AC000FC0124813581C9010895FC018089918947
:100AD000892BD1F03FB7F894808991890197918B48
:100AE000808B84899589DF01A80FB91F56962C91B8
:100AF0000196803291051CF4958B848B02C0158A77
:100B0000148A3FBF30E002C02FEF3FEFC9010895C4
:100B1000EF92FF921F93CF93DF931F92CDB7DEB773
:100B20007C01D701DA968D919C91DB974097C8F7AD
:100B30001FB7F894D696ED91FC91D7970190F0816C
:100B4000E02DC701C6966983099569814097C8F46D
:100B5000F70182AD93AD019693AF82AF84AD95ADB1
:100B6000E80FF91FE05CFF4F60830196D701DD9627
:100B70009C938E93DC97409724F0DD961C921E92F6
:100B8000DC97F701EA5AFF4F0190F081E02D808158
:100B9000806280831FBF81E090E00F90DF91CF9152
:100BA0001F91FF90EF900895665F7F4F680F791F48
:100BB000CB010895665F7F4F680F791FCB010895C1
:100BC000665F7F4F680F791FCB010895665F7F4F87
:100BD000680F791FCB0108951F920F920FB60F92E5
:100BE00011242F938F939F93AF93BF93EF93FF9312
:100BF00080917C0290917D02892B21F1E0919C02F1
:100C0000F0919D0280917C0290917D0201979093DA
:100C10007D0280937C028091800290918102DC01B0
:100C2000A858BD4F1A962C910196803191052CF44D
:100C3000909381028093800204C0109281021092EE
:100C40008002208380917C0290917D02892B31F477
:100C5000E0919802F091990288E98083FF91EF91E9
:100C6000BF91AF919F918F912F910F900FBE0F90D9
:100C70001F9018951F920F920FB60F9211242F9369
:100C80008F939F93AF93BF93EF93FF938091200235
:100C900090912102892B21F1E0914002F0914102D3
:100CA00080912002909121020197909321028093DC
:100CB00020028091240290912502DC01A45EBD4FA8
:100CC0001A962C910196803191052CF4909325026F
:100CD0008093240204C010922502109224022083E3
:100CE0008091200290912102892B31F4E0913C0205
:100CF000F0913D0288E98083FF91EF91BF91AF9120
:100D00009F918F912F910F900FBE0F901F9018956C
:100D1000FC01262F1382128248EE53E060E070E05F
:100D2000448355836683778382E391E09183808354
:100D300082E491E09587848780E290E097878687B8
:100D4000118A108A158A148A138A128A8CE491E017
:100D500097AB86AB80E190E091AF80AF13AE12AE5F
:100D600017AE16AE15AE14AE222321F0213009F0D5
:100D700052C028C0DF01A05BBF4F85EC90E08D938F
:100D80009C93DF01AE5ABF4F84EC90E08D939C930F
:100D9000DF01AC5ABF4F80EC90E08D939C93DF0154
:100DA000AA5ABF4F81EC90E08D939C93DF01A85A23
:100DB000BF4F82EC90E08D939C93E65AFF4F86ECF8
:100DC00090E027C0DF01A05BBF4F8DEC90E08D93DA
:100DD0009C93DF01AE5ABF4F8CEC90E08D939C93B7
:100DE000DF01AC5ABF4F88EC90E08D939C93DF01FC
:100DF000AA5ABF4F89EC90E08D939C93DF01A85ACB
:100E0000BF4F8AEC90E08D939C93E65AFF4F8EEC97
:100E100090E09183808308953F924F925F926F920A
:100E20007F928F929F92AF92BF92CF92DF92EF927A
:100E3000FF920F931F93CF93DF93EC014A015B0165
:100E4000122F3E2C60E072E18AE790E0A501940148
:100E50000E949A1069017A0184E0C80ED11CE11C3D
:100E6000F11C83E0F694E794D794C7948A95D1F760
:100E700060E074E284EF90E0A50194010E949A1072
:100E800029013A0194E0490E511C611C711C93E048
:100E900076946794579447949A95D1F7A301920159
:100EA0004427552760E874E88EE190E00E94BC106A
:100EB0005901A818B908B7FE03C0B194A194B108AC
:100EC000A70196014427552760E472E48FE090E083
:100ED0000E94BC102819390937FF03C031952195AC
:100EE0003109FE01EC5AFF4F0190F081E02DA2166E
:100EF000B3063CF482E08083620181E0C81AD10825
:100F000004C0108291E0C91AD1081630C1F018F45B
:100F1000153099F405C0173029F0193071F404C068
:100F200080E00EC084E00CC0FE01EA5AFF4F019041
:100F3000F081E02D80818460808386E001C082E0C2
:100F4000023009F4886091E0391621F092E03912FC
:100F500004C002C0806301C08062FE01E85AFF4FF6
:100F60000190F081E02D8083FE01E05BFF4F019056
:100F7000F081E02DD082FE01EE5AFF4F0190F0810A
:100F8000E02DC082CA5ADF4FE881F98188E9808369
:100F9000DF91CF911F910F91FF90EF90DF90CF9055
:100FA000BF90AF909F908F907F906F905F904F9089
:100FB0003F9008950F931F93CF93DF931F92CDB768
:100FC000DEB78C01DC01ED91FC910190F081E02D08
:100FD0006983099569818097D0F4F80184819581AE
:100FE00001969583848386819781E80FF91F628734
:100FF00001968032910534F4D80117969C938E9314
:10100000169703C0F8011782168281E001C080E0C4
:101010000F90DF91CF911F910F9108951F920F9222
:101020000FB60F9211242F933F934F935F936F93BB
:101030007F938F939F93AF93BF93EF93FF93E09131
:101040004002F0914102608182EF91E00E94DA0754
:10105000FF91EF91BF91AF919F918F917F916F9190
:101060005F914F913F912F910F900FBE0F901F9066
:1010700018951F920F920FB60F9211242F933F9342
:101080004F935F936F937F938F939F93AF93BF9390
:10109000EF93FF93E0919C02F0919D0260818EE4BA
:1010A00092E00E94DA07FF91EF91BF91AF919F917B
:1010B0008F917F916F915F914F913F912F910F9001
:1010C0000FBE0F901F90189560E082E492E00E949E
:1010D000880661E086EE91E00C9488060E94970BEA
:1010E0000E9402010E945A01FDCFCF92DF92EF923F
:1010F000FF920F931F93CF93DF936C01EB017A0163
:10110000E60EF71E00E010E00BC06991D601ED91EC
:10111000FC910190F081E02DC6010995080F191F7F
:10112000CE15DF0591F7C801DF91CF911F910F9187
:10113000FF90EF90DF90CF9008956115710581F0D9
:10114000DB010D900020E9F7AD0141505109461B2C
:10115000570BDC01ED91FC910280F381E02D0994A5
:1011600080E090E00895DC01ED91FC910190F08128
:10117000E02D09940C949D080F931F93CF93DF9358
:10118000EC016DE00E94B3088C016AE0CE010E9480
:10119000B3089C01200F311FC901DF91CF911F912E
:1011A0000F9108954F925F926F927F929F92AF92AC
:1011B000BF92CF92DF92EF92FF920F931F93CF9344
:1011C000DF93CDB7DEB7A1970FB6F894DEBF0FBEA1
:1011D000CDBF5C016A017B01922E19A281E08217CA
:1011E00010F08AE0982E8E010F5D1F4F492C512C74
:1011F000612C712CC701B601A30192010E949A10C3
:101200008C2D929E80191124015011098A3014F4FA
:10121000805D01C0895CF801808369017A01C11495
:10122000D104E104F10431F7B801C5010E949D0821
:10123000A1960FB6F894DEBF0FBECDBFDF91CF9160
:101240001F910F91FF90EF90DF90CF90BF90AF90E4
:101250009F907F906F905F904F900895CF92DF9214
:10126000EF92FF920F931F93CF93DF93EC016A01EC
:101270007B012115310579F4E881F9810190F08134
:10128000E02D642FDF91CF911F910F91FF90EF9090
:10129000DF90CF9009942A30310519F477FD0EC004
:1012A0002AE0B701A601CE01DF91CF911F910F91E6
:1012B000FF90EF90DF90CF900C94D2086DE20E94E7
:1012C000B3088C0144275527BA014C195D096E09F2
:1012D0007F092AE0CE010E94D208080F191FC80119
:1012E000DF91CF911F910F91FF90EF90DF90CF9002
:1012F00008950F931F93CF93DF93EC019A01AB01F5
:10130000662757FD6095762F0E942E098C01CE012D
:101310000E94BC089801280F391FC901DF91CF91A5
:101320001F910F9108957F928F929F92AF92BF92DB
:10133000CF92DF92EF92FF920F931F93CF93DF93A1
:10134000EC016A017B01122F9A01AB01C701B601C2
:101350000E949610882319F062E571E032C04601C0
:101360005701E894B7F82FEF3FEF4FE75FE7C5016C
:10137000B4010E94961081110DC02FEF3FEF4FE78F
:101380005FE7C501B4010E94E00E18161CF466E583
:1013900071E017C02FEF3FEF4FE75FE4C701B601E1
:1013A0000E942F1018160CF40AC02FEF3FEF4FE7E2
:1013B0005FECC701B6010E94E00E87FF12C06AE52C
:1013C00071E0CE01DF91CF911F910F91FF90EF90CF
:1013D000DF90CF90BF90AF909F908F907F900C94B4
:1013E0009D0820E030E0A901C701B6010E94E00E8F
:1013F00087FF0AC06DE2CE010E94B3085C01F7FAD4
:10140000F094F7F8F09402C0A12CB12C00E060E059
:1014100070E080E09FE307C020E030E040E251E46C
:101420000E94E40E0F5F0113F7CF262F372F482FAE
:10143000592FC701B6010E947C0E762E872E982E5A
:10144000C92E0E94510FD62EE72EF82E092F0E948A
:101450007D0F9B01AC01672D782D892D9C2D0E945D
:101460007B0EC62E972E882E792E2AE04D2D5E2DCE
:101470006F2D702FCE010E94D2087C01EA0CFB1C5C
:101480001123B9F16EE571E0CE010E949D08E80ECE
:10149000F91E2FC020E030E040E251E46C2D792DA0
:1014A000882D972D0E943310762E072F6C019D2DCD
:1014B0000E944C0F4B01AA2497FCA094BA2C2AE05E
:1014C00030E0B501A401CE010E942E09E80EF91EFC
:1014D000C501B4010E947F0F9B01AC01672D702FE5
:1014E0008C2D9D2D0E947B0EC62E972E882E792E38
:1014F00011501111CFCFC701DF91CF911F910F91E3
:10150000FF90EF90DF90CF90BF90AF909F908F9023
:101510007F9008950C9493090F931F93CF93DF93BB
:10152000EC010E9493098C01CE010E94BC08980135
:10153000280F391FC901DF91CF911F910F91089595
:10154000FC01808191810C947911CF93DF93EC01A0
:1015500088819981009711F00E947911198218826F
:101560001D821C821B821A82DF91CF9108950F93F6
:101570001F93CF93DF93EC018B016F5F7F4F8881C7
:1015800099810E941612009731F0998388831B83FA
:101590000A8381E001C080E0DF91CF911F910F911C
:1015A0000895CF93DF93EC0188819981892B31F0E5
:1015B0008A819B818617970708F00CC0CE010E9494
:1015C000B70A882349F08C819D81892B19F4E88121
:1015D000F981108281E001C080E0DF91CF91089510
:1015E000EF92FF920F931F93CF93DF93EC017B0158
:1015F0008A01BA010E94D10A811104C0CE010E9461
:10160000A50A07C01D830C83B701888199810E94B8
:10161000EB12CE01DF91CF911F910F91FF90EF90D0
:101620000895DC0111961C921E9213961C921E9234
:10163000129715961C921E92149716961C9261157D
:10164000710559F0DB010D900020E9F7AD01415023
:101650005109461B570B0C94F00A0895EF92FF9224
:101660000F931F93CF93DF93EC017B010C811D81BE
:101670006115710511F480E016C04115510591F016
:10168000040F151FB8010E94D10A8823A1F32881F5
:1016900039818C819D81B701820F931F0E94EB12CB
:1016A0001D830C8381E0DF91CF911F910F91FF90FB
:1016B000EF900895CF93DF9300D0CDB7DEB7698365
:1016C0001A8241E050E0BE016F5F7F4F0E942E0BF7
:1016D0000F900F90DF91CF9108950F931F93CF93A9
:1016E000DF93EB0141155105E9F02097D9F0FC019A
:1016F000048115812017310708F013C041505109AA
:10170000021B130B4017510708F48A01FC0160818A
:101710007181620F731FA801CE010E94F212C00FE7
:10172000D11F1882DF91CF911F910F91089563E02F
:1017300082EE92E00E94560E21E041ED54E060E01E
:1017400082EE92E00E942C0E64E082EE92E00E9413
:10175000590D61E080EC92E00E94560E64E080EC4E
:1017600092E00E94590D61E08EE992E00E94560ECF
:1017700064E08EE992E00E94590D789408951F92DA
:101780000F920FB60F9211242F933F934F935F93B5
:101790006F937F938F939F93AF93BF93EF93FF9339
:1017A000E091FC02F091FD02309709F00995FF915C
:1017B000EF91BF91AF919F918F917F916F915F91C9
:1017C0004F913F912F910F900FBE0F901F90189542
:1017D0001F920F920FB60F9211242F933F934F93A6
:1017E0005F936F937F938F939F93AF93BF93EF9389
:1017F000FF93E091FE02F091FF02309709F0099506
:10180000FF91EF91BF91AF919F918F917F916F91D8
:101810005F914F913F912F910F900FBE0F901F90AE
:1018200018951F920F920FB60F9211242F933F938A
:101830004F935F936F937F938F939F93AF93BF93D8
:10184000EF93FF93E091FA02F091FB02309709F0D9
:101850000995FF91EF91BF91AF919F918F917F91EA
:101860006F915F914F913F912F910F900FBE0F900D
:101870001F9018951F920F920FB60F9211242F935D
:101880003F934F935F936F937F938F939F93AF9308
:10189000BF93EF93FF93E091B802F091B9023097B4
:1018A00009F00995FF91EF91BF91AF919F918F91B1
:1018B0007F916F915F914F913F912F910F900FBE4C
:1018C0000F901F9018951F920F920FB60F92112430
:1018D0002F933F934F935F936F937F938F939F9338
:1018E000AF93BF93EF93FF93E091BA02F091BB02E5
:1018F000309709F00995FF91EF91BF91AF919F91BA
:101900008F917F916F915F914F913F912F910F90A8
:101910000FBE0F901F9018951F920F920FB60F9247
:1019200011242F933F934F935F936F937F938F93E4
:101930009F93AF93BF93EF93FF93E091B602F09123
:10194000B702309709F00995FF91EF91BF91AF91E0
:101950009F918F917F916F915F914F913F912F91C7
:101960000F900FBE0F901F9018951F920F920FB6F9
:101970000F9211242F933F934F935F936F937F9315
:101980008F939F93AF93BF93EF93FF93E091DA020E
:10199000F091DB02309709F00995FF91EF91BF912B
:1019A000AF919F918F917F916F915F914F913F91F7
:1019B0002F910F900FBE0F901F9018951F920F92AE
:1019C0000FB60F9211242F933F934F935F936F9312
:1019D0007F938F939F93AF93BF93EF93FF93E09188
:1019E000DC02F091DD02309709F00995FF91EF914B
:1019F000BF91AF919F918F917F916F915F914F9127
:101A00003F912F910F900FBE0F901F9018951F922E
:101A10000F920FB60F9211242F933F934F935F9322
:101A20006F937F938F939F93AF93BF93EF93FF93A6
:101A3000E091D802F091D902309709F00995FF9111
:101A4000EF91BF91AF919F918F917F916F915F9136
:101A50004F913F912F910F900FBE0F901F901895AF
:101A60001F920F920FB60F9211242F933F934F9313
:101A70005F936F937F938F939F93AF93BF93EF93F6
:101A8000FF93E091E002F091E102309709F00995AF
:101A9000FF91EF91BF91AF919F918F917F916F9146
:101AA0005F914F913F912F910F900FBE0F901F901C
:101AB0001895DC012C916150223039F4673068F4BC
:101AC000E62FF0E0E05AFE4F06C0693030F4E62F12
:101AD000F0E0E959FE4F208101C020E0DC011A96B8
:101AE000ED91FC911B978081887F822B80830895E4
:101AF000CF93DF93EC016883613011F120F0623005
:101B000009F06CC048C01B821A8286E490E09D8375
:101B10008C838EE690E09F838E8384E490E09987A7
:101B2000888785E490E09B878A871D861C8687E4EA
:101B300090E09F878E87198A188A88E490E022C0F7
:101B40008FE690E09F838E8385E890E09B838A8375
:101B500084E890E09D838C8380E890E09987888773
:101B600081E890E09B878A8789E890E09D878C8751
:101B700088E890E09F878E878BE890E0998B888B30
:101B80008AE890E09B8B8A8B1D8A1C8A1F8A1E8A9A
:101B900082E0898323C01B821A8282EB90E09D83BE
:101BA0008C8380E790E09F838E8380EB90E0998721
:101BB000888781EB90E09B878A871D861C8683EB54
:101BC00090E09F878E87198A188A84EB90E09B8B20
:101BD0008A8B1D8A1C8A1F8A1E8A698360E0CE0157
:101BE0000E94590DEA81FB81309709F01082EC8147
:101BF000FD811082198E188E1B8E1A8E1D8E1C8EE2
:101C00001F8E1E8E19A218A2DF91CF91089551E068
:101C1000411101C050E06530F0F4E62FF0E0E059EA
:101C2000FE4F408147FD17C0DC011696ED91FC91F7
:101C30001797808121E030E0042E01C0220F0A9422
:101C4000EAF720952823852F042E01C0880F0A94D7
:101C5000EAF7282B20830895623099F028F4662350
:101C600041F06130C9F409C0633079F06430A1F407
:101C700010C0FC01518F408F0FC0FC01538F428F69
:101C80000BC0FC01558F448F07C0FC01578F468F56
:101C900003C0FC0151A340A3452B11F440E003C055
:101CA000222319F041E00C94070E0895DC011896E8
:101CB000ED91FC9119973081262F23703C7F232BC7
:101CC00020831A96ED91FC911B9780816C70660FB2
:101CD000877E682B6083089560E082EE92E00E9428
:101CE000780D61E080EC92E00E94780D62E08EE970
:101CF00092E00C94780D5058BB27AA270ED075C1DE
:101D000066D130F06BD120F031F49F3F11F41EF416
:101D10005BC10EF4E095E7FB51C1E92F77D180F369
:101D2000BA17620773078407950718F071F49EF5D8
:101D30008FC10EF4E0950B2EBA2FA02D0B01B90127
:101D400090010C01CA01A0011124FF27591B99F031
:101D5000593F50F4503E68F11A16F040A22F232F3D
:101D6000342F4427585FF3CF469537952795A7958D
:101D7000F0405395C9F77EF41F16BA0B620B730B34
:101D8000840BBAF09150A1F0FF0FBB1F661F771FA5
:101D9000881FC2F70EC0BA0F621F731F841F48F45A
:101DA000879577956795B795F7959E3F08F0B3CFE0
:101DB0009395880F08F09927EE0F979587950895CA
:101DC000D9D008F481E008950CD00FC107D140F0BC
:101DD000FED030F021F45F3F19F0F0C0511139C14D
:101DE000F3C014D198F39923C9F35523B1F3951B8C
:101DF000550BBB27AA2762177307840738F09F5F2C
:101E00005F4F220F331F441FAA1FA9F333D00E2E9A
:101E10003AF0E0E830D091505040E695001CCAF707
:101E200029D0FE2F27D0660F771F881FBB1F2617CC
:101E300037074807AB07B0E809F0BB0B802DBF019F
:101E4000FF2793585F4F2AF09E3F510568F0B6C0B8
:101E500000C15F3FECF3983EDCF38695779567957C
:101E6000B795F7959F5FC9F7880F911D9695879550
:101E700097F90895E1E0660F771F881FBB1F62176F
:101E800073078407BA0720F0621B730B840BBA0B2D
:101E9000EE1F88F7E095089504D06894B111D9C079
:101EA0000895BCD088F09F5790F0B92F9927B7516B
:101EB000A0F0D1F0660F771F881F991F1AF0BA950E
:101EC000C9F712C0B13081F0C3D0B1E00895C0C0ED
:101ED000672F782F8827B85F39F0B93FCCF3869504
:101EE00077956795B395D9F73EF490958095709561
:101EF00061957F4F8F4F9F4F0895E89409C097FBDE
:101F00003EF490958095709561957F4F8F4F9F4FD0
:101F10009923A9F0F92F96E9BB279395F695879514
:101F200077956795B795F111F8CFFAF4BB0F11F4D7
:101F300060FF1BC06F5F7F4F8F4F9F4F16C088237E
:101F400011F096E911C0772321F09EE8872F762FB4
:101F500005C0662371F096E8862F70E060E02AF0F5
:101F60009A95660F771F881FDAF7880F96958795E1
:101F700097F90895990F0008550FAA0BE0E8FEEFB6
:101F800016161706E807F907C0F012161306E4073D
:101F9000F50798F0621B730B840B950B39F40A2636
:101FA00061F0232B242B252B21F408950A2609F414
:101FB000A140A6958FEF811D811D089597F99F6718
:101FC00080E870E060E008959FEF80EC08950024C1
:101FD0000A941616170618060906089500240A948E
:101FE00012161306140605060895092E0394000C14
:101FF00011F4882352F0BB0F40F4BF2B11F460FFA3
:1020000004C06F5F7F4F8F4F9F4F089557FD9058CB
:10201000440F551F59F05F3F71F04795880F97FBAC
:10202000991F61F09F3F79F0879508951216130666
:102030001406551FF2CF4695F1DF08C01616170695
:102040001806991FF1CF86957105610508940895CA
:10205000E894BB2766277727CB0197F908958ADF95
:1020600008F48FEF08950BD0C0CFB1DF28F0B6DFB2
:1020700018F0952309F0A2CFA7CF1124EACFC6DF2D
:10208000A0F3959FD1F3950F50E0551F629FF0018B
:10209000729FBB27F00DB11D639FAA27F00DB11DE4
:1020A000AA1F649F6627B00DA11D661F829F22276D
:1020B000B00DA11D621F739FB00DA11D621F839FF4
:1020C000A00D611D221F749F3327A00D611D231FCA
:1020D000849F600D211D822F762F6A2F11249F5718
:1020E00050408AF0E1F088234AF0EE0FFF1FBB1F3B
:1020F000661F771F881F91505040A9F79E3F5105DA
:1021000070F05CCFA6CF5F3FECF3983EDCF3869592
:1021100077956795B795F795E7959F5FC1F7FE2B84
:10212000880F911D9695879597F9089523DF880B61
:10213000990B0895A1E21A2EAA1BBB1BFD010DC02D
:10214000AA1FBB1FEE1FFF1FA217B307E407F50767
:1021500020F0A21BB30BE40BF50B661F771F881F43
:10216000991F1A9469F760957095809590959B01D9
:10217000AC01BD01CF010895052E97FB16F4009424
:1021800007D057FD0DD00E949A1007FC09D07EF4AD
:1021900090958095709561957F4F8F4F9F4F0895D3
:1021A00050954095309521953F4F4F4F5F4F089583
:1021B000EE0FFF1F0590F491E02D09940F931F93EC
:1021C000CF93DF938230910510F482E090E0E091AC
:1021D0000603F091070320E030E0C0E0D0E023C028
:1021E0004081518148175907A8F04817590761F4F1
:1021F00082819381209719F09B838A832EC09093CC
:1022000007038093060329C02115310529F04217E1
:10221000530710F0A90102C0BE01DF010281138142
:10222000EF019A01F8013097D9F62115310509F12E
:10223000281B390B2430310590F412968D919C9116
:1022400013976115710521F0FB019383828304C00C
:102250009093070380930603FD01329644C0FD016D
:10226000E20FF31F81939193225031092D933C93F8
:102270003AC02091040330910503232B41F42091AF
:102280000201309103013093050320930403209150
:102290000001309101012115310541F42DB73EB700
:1022A0004091040150910501241B350BE09104037A
:1022B000F0910503E217F307A0F42E1B3F0B28173C
:1022C000390778F0AC014E5F5F4F2417350748F0AF
:1022D0004E0F5F1F50930503409304038193919326
:1022E00002C0E0E0F0E0CF01DF91CF911F910F91AC
:1022F0000895EF92FF920F931F93CF93DF93009770
:1023000009F48FC0DC01129713961C921E9212974B
:10231000E0900603F0900703E114F10489F42D9195
:102320003C911197280F391F809104039091050368
:102330008217930789F5B0930503A093040371C036
:10234000E70120E030E001C0EA01CA17DB0738F4FA
:102350004A815B819E0141155105B1F722C0BC0144
:1023600062507109FB01D383C28300811181AC01EA
:10237000400F511F4C175D0761F448815981400F90
:10238000511F4E5F5F4F518340834A815B8153836E
:1023900042832115310529F4B0930703A093060366
:1023A00040C0F901B383A283E90169917991C60F15
:1023B000D71FAC17BD0779F4DC015E914E91460F33
:1023C000571F4E5F5F4F5183408312968D919C91B2
:1023D000139793838283A0E0B0E002C0D7017C0111
:1023E000F701828193810097C9F7C7010296208186
:1023F0003181820F931F2091040330910503281728
:10240000390779F4109729F4109207031092060304
:1024100004C013961C921E921297F0920503E0924C
:102420000403CDB7DEB7E6E00C942913A0E0B0E0DA
:10243000ECE1F2E10C940713EC01009729F4CB01D5
:102440000E94DE10EC01B8C0DC01A60FB71FFC0132
:102450003297AE17BF0718F4C0E0D0E0ADC00081DE
:10246000118106171707B0F00530110508F4A4C054
:10247000C80104978617970708F49EC002501109F7
:10248000061B170B0D931D9371836083CD010E9472
:10249000791192C07B01E01AF10A5C01A00EB11E15
:1024A000E0910603F0910703812C912C80E090E0ED
:1024B0004CC0EA15FB05F1F5408151816A0122E02B
:1024C000C20ED11CCE14DF04A8F19A012E193F09C7
:1024D0007901690132E0C30ED11C2EEFA22EBB247C
:1024E000BA94AC0EBD1E25E0C216D10478F042812C
:1024F000538113965C934E9312971196FC92EE9231
:10250000F501718360833A2F2B2F09C00E5F1F4F97
:10251000040F151FD5010D931C9332812381009761
:1025200021F0FC013283238347C0309306032093BC
:10253000070342C0808191818816990608F44C01F6
:1025400052814381CF01E52FF42F309709F0B1CFAD
:1025500080910403909105038A159B05F1F486167A
:102560009706D8F48091000190910101009741F401
:102570008DB79EB72091040130910501821B930B0A
:10258000A817B90708F068CFB0930503A093040318
:10259000FE013297718360830FC0CB010E94DE1071
:1025A0007C01009709F458CFA801BE010E94E212F5
:1025B000CE010E947911E701CE01CDB7DEB7ECE084
:1025C0000C942313FB01DC0102C001900D924150D9
:1025D0005040D8F70895FB01DC0101900D920020D6
:1025E000E1F70895FB01DC014150504048F00190B3
:1025F0000D920020C9F701C01D9241505040E0F7F4
:1026000008952F923F924F925F926F927F928F9296
:102610009F92AF92BF92CF92DF92EF92FF920F9371
:102620001F93CF93DF93CDB7DEB7CA1BDB0B0FB67B
:10263000F894DEBF0FBECDBF09942A883988488838
:102640005F846E847D848C849B84AA84B984C884CE
:10265000DF80EE80FD800C811B81AA81B981CE0FC5
:10266000D11D0FB6F894DEBF0FBECDBFED010895AA
:1026700010E0C2E8D0E004C0FE010E94DA10229609
:0A268000C438D107C9F7F894FFCF62
:10268A00000008032000313233343030303020204B
:10269A002020010008090A040506073132333435BF
:1026AA00363738392A30230101203C3D200000000A
:1026BA000000880575083A053F05650553050000C1
:1026CA0000006005E005E605000000005B05D40592
:1026DA00DA056E616E00696E66006F7666002E001E
:1026EA0001020304050607010200030004050607A8
:0626FA00000102030500CF
:00000001FF
