:100000000C9442000C946A000C946A000C946A00F0
:100010000C946A000C946A000C946A000C946A00B8
:100020000C946A000C94F70B0C94200C0C94490C63
:100030000C94ED0C0C94720C0C949B0C0C94C40C52
:100040000C947C0B0C94A50B0C94CE0B0C946A00B6
:100050000C94CD080C9480060C946A000C946A00F1
:100060000C946A000C946A000C946A000C946A0068
:100070000C94A2080C94CE060C946A00AB01F8080C
:10008000290EC30111241FBECFEFD0E1DEBFCDBFCB
:1000900011E0A0E0B1E0E0E7F4E202C005900D92CB
:1000A000A83BB107D9F713E0A8EBB1E001C01D925E
:1000B000AD34B107E1F710E0C2E8D0E004C0229708
:1000C000FE010E94910FCC37D107C9F70E940209A7
:1000D0000C942B120C9400001092C5011092C401D4
:1000E00080E280935601809357018093580180935A
:1000F0005901089546E051E01AC0882359F0D9010A
:10010000AA5ABE4FFA01E20FF31F81E06C91908171
:10011000691380E02F5F3F4F2430310571F7811163
:100120000AC04C5F5F4F91E04635590721F020E04F
:1001300030E081E0E2CF0895CF93DF9380E00E942A
:100140003505BC01882777FD8095982F0E943E0ECB
:100150002DEC3CEC4CEA50E40E94EE0E20E030E046
:1001600040E85AE30E94EE0EFB01462F5F2F682FF6
:10017000792F40931E0250931F02609320027093C8
:1001800021022AE939E949E95FE36E2F7F2F0E94B6
:10019000380E18165CF0289A4AE050E064E070E0EF
:1001A00087E892E0DF91CF910C94370A2898DF918D
:1001B000CF9108954398449A459A0895439A449854
:1001C000459A0895439A449A45980895EF920F935B
:1001D000E12C01E028E040E855E260E070E087E8CB
:1001E00092E00E94A0073B9A3C9A3D9A3E98209A42
:1001F00050980F91EF900C94E200CF93DF9300D0D2
:1002000000D0CDB7DEB780911D02882309F49CC0D1
:1002100010921D028091BA0181111CC086E192E00A
:100220000E94480B7093B9016093B80181E08093FC
:10023000BA0161E771E087E892E00E944E0960919F
:10024000B8017091B9014AE050E087E892E00E945D
:100250002F0A74C020E030E044E050E0BE016F5F40
:100260007F4F86E192E00E941E0B8091B801909131
:10027000B901FE013196880F991F880F991FAC01B3
:100280004A5F5E4F20E030E06191DA01A20FB31FB8
:1002900060536C932F5F3F4F24303105A9F71092C4
:1002A000BA01FC01EA5FFE4F608187E892E00E949C
:1002B00047096AE771E087E892E00E944E09E09101
:1002C000B801F091B901EE0FFF1FEE0FFF1FEA5FBB
:1002D000FE4F618187E892E00E9447096AE771E07A
:1002E00087E892E00E944E09E091B801F091B901CF
:1002F000EE0FFF1FEE0FFF1FEA5FFE4F628187E8E0
:1003000092E00E9447096AE771E087E892E00E9464
:100310004E09E091B801F091B901EE0FFF1FEE0F09
:10032000FF1FEA5FFE4F638187E892E00E94470962
:100330006CE771E087E892E00E944E0966E172E0A6
:1003400087E892E00E9474090F900F900F900F9031
:10035000DF91CF910895EF920F936DE771E086E101
:1003600092E00E94C20A43E0E42E04E02CE531E072
:100370004FE551E063E671E086EC91E00E94820473
:100380000F91EF90089586E192E00C94510ACF937B
:10039000DF93D1E018C087E892E00E94F905C82FEA
:1003A000682F86E192E00E940B0BCA3061F420E0D6
:1003B00030E042E350E064EE71E086E192E00E94BA
:1003C0001E0BD0931D0287E892E00E94CE05892B78
:1003D00011F7DF91CF9108950F931F930E949C0016
:1003E0000E94C7010E94FD0080915A0190915B011B
:1003F0008130910569F024F4892B09F49BC01FC159
:100400008230910509F4D3C0039709F018C1E8C000
:100410000E94E200369918C01092BB0110925B0155
:1004200010925A014AE050E061E070E087E892E003
:100430000E94370A0E949A056093BC017093BD0127
:100440008093BE019093BF0186EC91E00E94380337
:10045000882309F4F4C0833221F41F910F910C9486
:100460006C002091C4013091C501F901EA5AFE4F98
:100470008083C90101969093C5018093C4010497BC
:10048000C9F50E947A008823F1F01092C3011092FE
:10049000C20110925B0110925A0181E08093BB016E
:1004A0004AE050E061E070E087E892E00E94370A9D
:1004B0000E949A056093BC017093BD018093BE01B8
:1004C0009093BF0115C081E090E09093C1018093AB
:1004D000C00182E090E090935B0180935A0180918B
:1004E000C2019091C30101969093C3018093C20110
:1004F0000E946C008091C2019091C301039709F0A2
:100500009EC04AE050E062E070E087E892E00E941E
:10051000370A8EE190E09093C1018093C00182E0A0
:1005200090E090935B0180935A011092C301109266
:10053000C20185C00E94DE0086EC91E00E94380373
:100540008A3251F48091BB01882331F081E090E040
:1005500090935B0180935A01369B05C08091BB014B
:10056000882309F458C00E949A050091BC0110919B
:10057000BD012091BE013091BF01601B710B820B48
:10058000930B603375478105910508F458C083E0EB
:1005900090E090935B0180935A014AE050E063E061
:1005A00070E087E892E01F910F910C94370A0E9447
:1005B000DA008091C0019091C101892B09F439C002
:1005C00068EE73E080E090E00E94AC058091C0018D
:1005D0009091C10101979093C1018093C0012FC0F8
:1005E0000E94DA0086EC91E00E9438038A3231F4EE
:1005F00081E090E090935B0180935A01369B04C0A8
:100600008091BB01882371F0369919C08091BB019C
:1006100081110FC014C081E090E090935B01809342
:100620005A01A1CF81E090E090935B0180935A0141
:10063000EBCF81E090E090935B0180935A011F9192
:100640000F910895DC0118968D919C91199786174A
:10065000970769F019967C936E9318975C96ED91C5
:10066000FC915D97309719F01A968C910994089532
:100670004F925F926F927F92AF92BF92CF92DF9232
:10068000EF92FF920F931F93CF93DF93EC01A12C76
:10069000A8C00A2D10E0EC81FD81E00FF11F60E0A1
:1006A00080810E940005B12C68018EC0EB2CF12CDA
:1006B0008F81E881F981EC0DFD1DB89EE00DF11DE3
:1006C00011249A85808198133CC00E949A054E841B
:1006D0005F846888798864197509860997094A8C46
:1006E0005B8C612C712C641575058605970550F09F
:1006F000EA81FB81EE0DFF1D80810E94DC048823CE
:1007000009F498C00E949A054E845F8468887988AD
:100710006419750986099709488C598C612C712CCC
:10072000641575058605970508F493C0EA81FB8179
:10073000EB0DF11D80810E94DC04813009F089C03D
:100740007FC00E949A054E845F8468887988641906
:10075000750986099709488C598C612C712C641590
:1007600075058605970578F1EA81FB81EE0DFF1D81
:1007700080810E94DC04811126C0EC81FD81E00FA4
:10078000F11F61E080810E9400052F812E9DC00134
:100790002F9D900D1124E881F981EC0DFD1DE80FCE
:1007A000F91FF0808E859F85A889B9898A8B9B8BDC
:1007B000AC8BBD8B0E949A056E877F87888B998B47
:1007C000F11015C005C0B3948E81B81608F46ECF31
:1007D000EC81FD81E00FF11F61E080810E94000546
:1007E000A3948F81A81608F454CF80E040C08B8575
:1007F000F81239C00E949A050A891B892C893D8903
:10080000601B710B820B930B0E891F8920E030E077
:10081000061717072807390710F525C081E090E073
:100820009D878C87FA8661E070E0CE010E942203EA
:100830008A851DC063E070E0CE010E94220362CF72
:1008400062E070E0CE010E9422038A858B871A86BF
:10085000BFCF88859985039709F0B5CFB9CF8C852F
:100860009D850196DDCF8A85F812D8CFBECFDF9166
:10087000CF911F910F91FF90EF90DF90CF90BF909D
:10088000AF907F906F905F904F900895FF920F937D
:100890001F93CF93DF93EC01F12C13C00F2D10E0C9
:1008A000EA81FB81E00FF11F60E080810E94AE04CD
:1008B000EA81FB81E00FF11F61E080810E94000569
:1008C000F3948E81F81650F3F12C13C00F2D10E025
:1008D000EC81FD81E00FF11F61E080810E94AE0498
:1008E000EC81FD81E00FF11F61E080810E94000535
:1008F000F3948F81F81650F3DF91CF911F910F91F0
:10090000FF900895EF920F93FC0153834283358348
:1009100024830683E7827183608316861786108A94
:10092000118A128A138A148A158A8CE291E0978BB5
:10093000868B82E390E0918F808F88EE93E0938F97
:10094000828F158E148E1286138611861086158658
:100950001486CF010F91EF900C944604982F977056
:1009600021E030E0092E01C0220F0A94EAF78695B3
:100970008695869581F0813089F0823091F08330C0
:10098000D1F412C080812095822302C08081822B05
:1009900080839FBF0895EAE2F0E008C0E7E2F0E05C
:1009A00005C0E4E2F0E002C0E1E2F0E09FB7F894B5
:1009B000662341F3EBCF0895982F977021E030E044
:1009C00001C0220F9A95EAF786958695869539F0AB
:1009D000813041F0823049F0833051F00895E9E2EE
:1009E000F0E008C0E6E2F0E005C0E3E2F0E002C0BB
:1009F000E0E2F0E09081922381E009F480E0089544
:100A0000982F977021E030E0092E01C0220F0A9440
:100A1000EAF786958695869581F0813089F0823057
:100A200091F08330D1F412C080812095822302C0DE
:100A30008081822B80839FBF0895EBE2F0E008C0A5
:100A4000E8E2F0E005C0E5E2F0E002C0E2E2F0E05A
:100A50009FB7F894662341F3EBCF089580E4809329
:100A60007C0087E880937A000895CF93DF931F92EC
:100A7000CDB7DEB790916F01913031F489830E9438
:100A80002E0510926F01898187702091700140E4DA
:100A9000249F90011124822B80937C0080917A0006
:100AA000806480937A0080917A0086FDFCCF20914B
:100AB000780030917900932F80E0FC01E22B9F01B8
:100AC000C9010F90DF91CF910895809123029091F9
:100AD0002402A0912502B091260230912202232FF8
:100AE0002D5F2D3720F40196A11DB11D05C0232FC8
:100AF0002A570296A11DB11D209322028093230242
:100B000090932402A0932502B0932602809127029D
:100B100090912802A0912902B0912A020196A11D6C
:100B2000B11D8093270290932802A0932902B093CD
:100B30002A0208950F931F938FB7F8940091230210
:100B40001091240220912502309126028FBFB80116
:100B5000C9011F910F9108958F929F92AF92BF92FA
:100B6000CF92DF92EF92FF926B017C010E949A0577
:100B70004B015C010E949A05681979098A099B0951
:100B80006C157D058E059F05A8F3FF90EF90DF9013
:100B9000CF90BF90AF909F908F900895FC012089D7
:100BA0003189C9010895DC0150962D913C915197EE
:100BB000232B49F05496ED91FC915597E80FF91FBE
:100BC000268930E002C02FEF3FEFC9010895FC01F4
:100BD000118A108A158A148A138A128A0895FC01D0
:100BE00024813581C9010895FC0124813581C90121
:100BF0000895FC0180899189892BD1F03FB7F89441
:100C0000808991890197918B808B84899589DF01F7
:100C1000A80FB91F56962C910196803291051CF4AD
:100C2000958B848B02C0158A148A3FBF30E002C0C6
:100C30002FEF3FEFC9010895EF92FF921F93CF93DB
:100C4000DF931F92CDB7DEB77C01D701DA968D9185
:100C50009C91DB974097C8F71FB7F894D696ED9113
:100C6000FC91D7970190F081E02DC701C69669836A
:100C7000099569814097C8F4F70182AD93AD01965B
:100C800093AF82AF84AD95ADE80FF91FE05CFF4FE5
:100C900060830196D701DD969C938E93DC974097F5
:100CA00024F0DD961C921E92DC97F701EA5AFF4F62
:100CB0000190F081E02D8081806280831FBF81E000
:100CC00090E00F90DF91CF911F91FF90EF900895EA
:100CD000665F7F4F680F791FCB010895665F7F4F76
:100CE000680F791FCB010895665F7F4F680F791FEA
:100CF000CB010895665F7F4F680F791FCB01089580
:100D00001F920F920FB60F9211242F938F939F93E0
:100D1000AF93BF93EF93FF938091C1029091C20272
:100D2000892B21F1E091E102F091E2028091C10270
:100D30009091C20201979093C2028093C102809168
:100D4000C5029091C602DC01A354BD4F1A962C91A6
:100D50000196803191052CF49093C6028093C502D0
:100D600004C01092C6021092C50220838091C10275
:100D70009091C202892B31F4E091DD02F091DE0204
:100D800088E98083FF91EF91BF91AF919F918F91FF
:100D90002F910F900FBE0F901F9018951F920F92DA
:100DA0000FB60F9211242F938F939F93AF93BF93FE
:100DB000EF93FF938091650290916602892B21F158
:100DC000E0918502F0918602809165029091660221
:100DD00001979093660280936502809169029091D9
:100DE0006A02DC01AF59BD4F1A962C9101968031F1
:100DF00091052CF490936A028093690204C01092CA
:100E00006A021092690220838091650290916602C5
:100E1000892B31F4E0918102F091820288E980838C
:100E2000FF91EF91BF91AF919F918F912F910F9073
:100E30000FBE0F901F901895FC01262F138212826F
:100E400048EE53E060E070E0448355836683778327
:100E500082E891E09183808382E991E0958784879D
:100E600080E290E097878687118A108A158A148A13
:100E7000138A128A8CE991E097AB86AB80E190E00F
:100E800091AF80AF13AE12AE17AE16AE15AE14AE64
:100E9000222321F0213009F052C028C0DF01A05BDD
:100EA000BF4F85EC90E08D939C93DF01AE5ABF4F0E
:100EB00084EC90E08D939C93DF01AC5ABF4F80ECA3
:100EC00090E08D939C93DF01AA5ABF4F81EC90E094
:100ED0008D939C93DF01A85ABF4F82EC90E08D93D5
:100EE0009C93E65AFF4F86EC90E027C0DF01A05BA1
:100EF000BF4F8DEC90E08D939C93DF01AE5ABF4FB6
:100F00008CEC90E08D939C93DF01AC5ABF4F88EC42
:100F100090E08D939C93DF01AA5ABF4F89EC90E03B
:100F20008D939C93DF01A85ABF4F8AEC90E08D937C
:100F30009C93E65AFF4F8EEC90E091838083089556
:100F40003F924F925F926F927F928F929F92AF9259
:100F5000BF92CF92DF92EF92FF920F931F93CF93A6
:100F6000DF93EC014A015B01122F3E2C60E072E13D
:100F70008AE790E0A50194010E94510F69017A016E
:100F800084E0C80ED11CE11CF11C83E0F694E794C8
:100F9000D794C7948A95D1F760E074E284EF90E02B
:100FA000A50194010E94510F29013A0194E0490ED4
:100FB000511C611C711C93E076946794579447947C
:100FC0009A95D1F7A30192014427552760E874E868
:100FD0008EE190E00E94730F5901A818B908B7FE7E
:100FE00003C0B194A194B108A701960144275527E5
:100FF00060E472E48FE090E00E94730F28193909D1
:1010000037FF03C0319521953109FE01EC5AFF4F9E
:101010000190F081E02DA216B3063CF482E08083BB
:10102000620181E0C81AD10804C0108291E0C91A97
:10103000D1081630C1F018F4153099F405C01730F6
:1010400029F0193071F404C080E00EC084E00CC0B7
:10105000FE01EA5AFF4F0190F081E02D808184600B
:10106000808386E001C082E0023009F4886091E06C
:10107000391621F092E0391204C002C0806301C029
:101080008062FE01E85AFF4F0190F081E02D8083DD
:10109000FE01E05BFF4F0190F081E02DD082FE0168
:1010A000EE5AFF4F0190F081E02DC082CA5ADF4F07
:1010B000E881F98188E98083DF91CF911F910F91B9
:1010C000FF90EF90DF90CF90BF90AF909F908F9068
:1010D0007F906F905F904F903F9008950F931F9374
:1010E000CF93DF931F92CDB7DEB78C01DC01ED917A
:1010F000FC910190F081E02D6983099569818097C9
:10110000D0F4F8018481958101969583848386814A
:101110009781E80FF91F628701968032910534F4B8
:10112000D80117969C938E93169703C0F8011782E7
:10113000168281E001C080E00F90DF91CF911F9176
:101140000F9108951F920F920FB60F9211242F93B3
:101150003F934F935F936F937F938F939F93AF933F
:10116000BF93EF93FF93E0918502F0918602608137
:1011700087E392E00E946E08FF91EF91BF91AF91DB
:101180009F918F917F916F915F914F913F912F919F
:101190000F900FBE0F901F9018951F920F920FB6D1
:1011A0000F9211242F933F934F935F936F937F93ED
:1011B0008F939F93AF93BF93EF93FF93E091E102DF
:1011C000F091E202608183E992E00E946E08FF9153
:1011D000EF91BF91AF919F918F917F916F915F91AF
:1011E0004F913F912F910F900FBE0F901F90189528
:1011F00060E087E892E00E941C0761E08BE292E0E9
:101200000C941C070E94540B0E94E6000E94EC0103
:10121000FDCFCF92DF92EF92FF920F931F93CF9368
:10122000DF936C01EB017A01E60EF71E00E010E09F
:101230000BC06991D601ED91FC910190F081E02DF8
:10124000C6010995080F191FCE15DF0591F7C801D2
:10125000DF91CF911F910F91FF90EF90DF90CF9092
:1012600008956115710581F0DB010D900020E9F70B
:10127000AD0141505109461B570BDC01ED91FC912A
:101280000280F381E02D099480E090E00895DC0174
:10129000ED91FC910190F081E02D09940C943109BD
:1012A000DC01ED91FC91DB0114964D915C91159759
:1012B0006D917C910280F381E02D09940F931F932F
:1012C000CF93DF93EC016DE00E9447098C016AE047
:1012D000CE010E9447099C01200F311FC901DF91F7
:1012E000CF911F910F9108950F931F93CF93DF9389
:1012F000EC010E9450098C01CE010E945E099C0104
:10130000200F311FC901DF91CF911F910F910895D7
:101310004F925F926F927F929F92AF92BF92CF92C5
:10132000DF92EF92FF920F931F93CF93DF93CDB78E
:10133000DEB7A1970FB6F894DEBF0FBECDBF5C013C
:101340006A017B01922E19A281E0821710F08AE0D7
:10135000982E8E010F5D1F4F492C512C612C712C42
:10136000C701B601A30192010E94510F8C2D929EDC
:1013700080191124015011098A3014F4805D01C0D4
:10138000895CF801808369017A01C114D104E10408
:10139000F10431F7B801C5010E943109A1960FB6D9
:1013A000F894DEBF0FBECDBFDF91CF911F910F919B
:1013B000FF90EF90DF90CF90BF90AF909F907F9085
:1013C0006F905F904F900895CF92DF92EF92FF92CF
:1013D0000F931F93CF93DF93EC016A017B012115DB
:1013E000310579F4E881F9810190F081E02D642FD5
:1013F000DF91CF911F910F91FF90EF90DF90CF90F1
:1014000009942A30310519F477FD0EC02AE0B7019E
:10141000A601CE01DF91CF911F910F91FF90EF9028
:10142000DF90CF900C9488096DE20E9447098C01EF
:1014300044275527BA014C195D096E097F092AE036
:10144000CE010E948809080F191FC801DF91CF91B2
:101450001F910F91FF90EF90DF90CF9008959A0128
:10146000AB01662757FD6095762F0C94E4090F9326
:101470001F93CF93DF93EC019A01AB01662757FDD1
:101480006095762F0E94E4098C01CE010E945E09CE
:101490009801280F391FC901DF91CF911F910F913A
:1014A0000895FC01808191810C943010CF93DF93DB
:1014B000EC0188819981009711F00E943010198207
:1014C00018821D821C821B821A82DF91CF9108959F
:1014D0000F931F93CF93DF93EC018B016F5F7F4FCF
:1014E000888199810E94CD10009731F0998388837B
:1014F0001B830A8381E001C080E0DF91CF911F91BF
:101500000F910895CF93DF93EC0188819981892B06
:1015100031F08A819B818617970708F00CC0CE01B5
:101520000E94680A882349F08C819D81892B19F4D7
:10153000E881F981108281E001C080E0DF91CF91E4
:101540000895EF92FF920F931F93CF93DF93EC01D7
:101550007B018A01BA010E94820A811104C0CE0176
:101560000E94560A07C01D830C83B70188819981A8
:101570000E94C911CE01DF91CF911F910F91FF9071
:10158000EF900895DC0111961C921E9213961C9206
:101590001E92129715961C921E92149716961C92E4
:1015A0006115710559F0DB010D900020E9F7AD01DF
:1015B00041505109461B570B0C94A10A0895EF9214
:1015C000FF920F931F93CF93DF93EC017B010C816C
:1015D0001D816115710511F480E016C0411551059A
:1015E00091F0040F151FB8010E94820A8823A1F30D
:1015F000288139818C819D81B701820F931F0E94C0
:10160000C9111D830C8381E0DF91CF911F910F9150
:10161000FF90EF900895CF93DF9300D0CDB7DEB762
:1016200069831A8241E050E0BE016F5F7F4F0E94E4
:10163000DF0A0F900F90DF91CF9108950F931F93C2
:10164000CF93DF93EB0141155105E9F02097D9F0D5
:10165000FC01048115812017310708F013C04150A7
:101660005109021B130B4017510708F48A01FC01B2
:1016700060817181620F731FA801CE010E94D01199
:10168000C00FD11F1882DF91CF911F910F91089544
:10169000FC0180819181009711F00C94991160E018
:1016A00070E080E090E0089563E087E293E00E94BC
:1016B000130E21E045E655E060E087E293E00E94EA
:1016C000E90D64E087E293E00E94160D61E085E099
:1016D00093E00E94130E64E085E093E00E94160DF3
:1016E00061E083EE92E00E94130E64E083EE92E0EC
:1016F0000E94160D789408951F920F920FB60F92C4
:1017000011242F933F934F935F936F937F938F9306
:101710009F93AF93BF93EF93FF93E0914103F091B9
:101720004203309709F00995FF91EF91BF91AF9176
:101730009F918F917F916F915F914F913F912F91E9
:101740000F900FBE0F901F9018951F920F920FB61B
:101750000F9211242F933F934F935F936F937F9337
:101760008F939F93AF93BF93EF93FF93E0914303C6
:10177000F0914403309709F00995FF91EF91BF91E3
:10178000AF919F918F917F916F915F914F913F9119
:101790002F910F900FBE0F901F9018951F920F92D0
:1017A0000FB60F9211242F933F934F935F936F9334
:1017B0007F938F939F93AF93BF93EF93FF93E091AA
:1017C0003F03F0914003309709F00995FF91EF91A5
:1017D000BF91AF919F918F917F916F915F914F9149
:1017E0003F912F910F900FBE0F901F9018951F9251
:1017F0000F920FB60F9211242F933F934F935F9345
:101800006F937F938F939F93AF93BF93EF93FF93C8
:10181000E091FD02F091FE02309709F00995FF91E9
:10182000EF91BF91AF919F918F917F916F915F9158
:101830004F913F912F910F900FBE0F901F901895D1
:101840001F920F920FB60F9211242F933F934F9335
:101850005F936F937F938F939F93AF93BF93EF9318
:10186000FF93E091FF02F0910003309709F0099592
:10187000FF91EF91BF91AF919F918F917F916F9168
:101880005F914F913F912F910F900FBE0F901F903E
:1018900018951F920F920FB60F9211242F933F931A
:1018A0004F935F936F937F938F939F93AF93BF9368
:1018B000EF93FF93E091FB02F091FC02309709F067
:1018C0000995FF91EF91BF91AF919F918F917F917A
:1018D0006F915F914F913F912F910F900FBE0F909D
:1018E0001F9018951F920F920FB60F9211242F93ED
:1018F0003F934F935F936F937F938F939F93AF9398
:10190000BF93EF93FF93E0911F03F0912003309773
:1019100009F00995FF91EF91BF91AF919F918F9140
:101920007F916F915F914F913F912F910F900FBEDB
:101930000F901F9018951F920F920FB60F921124BF
:101940002F933F934F935F936F937F938F939F93C7
:10195000AF93BF93EF93FF93E0912103F0912203A4
:10196000309709F00995FF91EF91BF91AF919F9149
:101970008F917F916F915F914F913F912F910F9038
:101980000FBE0F901F9018951F920F920FB60F92D7
:1019900011242F933F934F935F936F937F938F9374
:1019A0009F93AF93BF93EF93FF93E0911D03F0914B
:1019B0001E03309709F00995FF91EF91BF91AF9108
:1019C0009F918F917F916F915F914F913F912F9157
:1019D0000F900FBE0F901F9018951F920F920FB689
:1019E0000F9211242F933F934F935F936F937F93A5
:1019F0008F939F93AF93BF93EF93FF93E091250352
:101A0000F0912603309709F00995FF91EF91BF916E
:101A1000AF919F918F917F916F915F914F913F9186
:101A20002F910F900FBE0F901F901895DC012C91F5
:101A30006150223039F4673068F4E62FF0E0EE555B
:101A4000FE4F06C0693030F4E62FF0E0E755FE4F58
:101A5000208101C020E0DC011A96ED91FC911B97DA
:101A60008081887F822B80830895CF93DF93EC0160
:101A70006883613011F120F0623009F06CC048C019
:101A80001B821A8286E490E09D838C838EE690E030
:101A90009F838E8384E490E09987888785E490E033
:101AA0009B878A871D861C8687E490E09F878E87A8
:101AB000198A188A88E490E022C08FE690E09F831C
:101AC0008E8385E890E09B838A8384E890E09D8301
:101AD0008C8380E890E09987888781E890E09B87F5
:101AE0008A8789E890E09D878C8788E890E09F87C7
:101AF0008E878BE890E0998B888B8AE890E09B8BAF
:101B00008A8B1D8A1C8A1F8A1E8A82E0898323C0D1
:101B10001B821A8282EB90E09D838C8380E790E0A9
:101B20009F838E8380EB90E09987888781EB90E09C
:101B30009B878A871D861C8683EB90E09F878E8714
:101B4000198A188A84EB90E09B8B8A8B1D8A1C8AE9
:101B50001F8A1E8A698360E0CE010E94160DEA8109
:101B6000FB81309709F01082EC81FD811082198E83
:101B7000188E1B8E1A8E1D8E1C8E1F8E1E8E19A205
:101B800018A2DF91CF91089551E0411101C050E0BA
:101B90006530F0F4E62FF0E0EE54FE4F408147FD53
:101BA00017C0DC011696ED91FC911797808121E01A
:101BB00030E0042E01C0220F0A94EAF72095282372
:101BC000852F042E01C0880F0A94EAF7282B208362
:101BD0000895623099F028F4662341F06130C9F429
:101BE00009C0633079F06430A1F410C0FC01518F5A
:101BF000408F0FC0FC01538F428F0BC0FC01558FEB
:101C0000448F07C0FC01578F468F03C0FC0151A3CE
:101C100040A3452B11F440E003C0222319F041E01A
:101C20000C94C40D0895DC011896ED91FC91199760
:101C30003081262F23703C7F232B20831A96ED9131
:101C4000FC911B9780816C70660F877E682B608388
:101C5000089560E087E293E00E94350D61E085E041
:101C600093E00E94350D62E083EE92E00C94350D16
:101C700040D008F481E00895E89409C097FB3EF451
:101C800090958095709561957F4F8F4F9F4F9923C9
:101C9000A9F0F92F96E9BB279395F6958795779547
:101CA0006795B795F111F8CFFAF4BB0F11F460FF07
:101CB0001BC06F5F7F4F8F4F9F4F16C0882311F05F
:101CC00096E911C0772321F09EE8872F762F05C073
:101CD000662371F096E8862F70E060E02AF09A950E
:101CE000660F771F881FDAF7880F9695879597F903
:101CF0000895990F0008550FAA0BE0E8FEEF16169D
:101D00001706E807F907C0F012161306E407F507EF
:101D100098F0621B730B840B950B39F40A2661F063
:101D2000232B242B252B21F408950A2609F4A14006
:101D3000A6958FEF811D811D089597F99F6780E813
:101D400070E060E008959FEF80EC089500240A940D
:101D50001616170618060906089500240A94121686
:101D60001306140605060895092E0394000C11F4B9
:101D7000882352F0BB0F40F4BF2B11F460FF04C066
:101D80006F5F7F4F8F4F9F4F089557FD9058440FBF
:101D9000551F59F05F3F71F04795880F97FB991FCA
:101DA00061F09F3F79F08795089512161306140687
:101DB000551FF2CF4695F1DF08C016161706180614
:101DC000991FF1CF86957105610508940895E894EF
:101DD000BB2766277727CB0197F908950BD0C4CF8F
:101DE000B5DF28F0BADF18F0952309F0A6CFABCF06
:101DF0001124EECFCADFA0F3959FD1F3950F50E0E9
:101E0000551F629FF001729FBB27F00DB11D639FAC
:101E1000AA27F00DB11DAA1F649F6627B00DA11D52
:101E2000661F829F2227B00DA11D621F739FB00DF8
:101E3000A11D621F839FA00D611D221F749F332768
:101E4000A00D611D231F849F600D211D822F762F01
:101E50006A2F11249F5750408AF0E1F088234AF0FE
:101E6000EE0FFF1FBB1F661F771F881F915050404A
:101E7000A9F79E3F510570F060CFAACF5F3FECF30A
:101E8000983EDCF3869577956795B795F795E79536
:101E90009F5FC1F7FE2B880F911D9695879597F947
:101EA0000895A1E21A2EAA1BBB1BFD010DC0AA1F9B
:101EB000BB1FEE1FFF1FA217B307E407F50720F0B3
:101EC000A21BB30BE40BF50B661F771F881F991F2E
:101ED0001A9469F760957095809590959B01AC0177
:101EE000BD01CF010895052E97FB16F4009407D08D
:101EF00057FD0DD00E94510F07FC09D07EF490953C
:101F00008095709561957F4F8F4F9F4F08955095A5
:101F10004095309521953F4F4F4F5F4F0895EE0FFD
:101F2000FF1F0590F491E02D09940F931F93CF9319
:101F3000DF938230910510F482E090E0E0914B0352
:101F4000F0914C0320E030E0C0E0D0E023C04081BD
:101F5000518148175907A8F04817590761F4828141
:101F60009381209719F09B838A832EC090934C0312
:101F700080934B0329C02115310529F042175307DF
:101F800010F0A90102C0BE01DF0102811381EF013F
:101F90009A01F8013097D9F62115310509F1281B6E
:101FA000390B2430310590F412968D919C91139742
:101FB0006115710521F0FB019383828304C0909326
:101FC0004C0380934B03FD01329644C0FD01E20FA8
:101FD000F31F81939193225031092D933C933AC082
:101FE0002091490330914A03232B41F420910201AF
:101FF0003091030130934A0320934903209100015B
:10200000309101012115310541F42DB73EB74091C2
:10201000040150910501241B350BE0914903F09117
:102020004A03E217F307A0F42E1B3F0B28173907CA
:1020300078F0AC014E5F5F4F2417350748F04E0F24
:102040005F1F50934A03409349038193919302C0C9
:10205000E0E0F0E0CF01DF91CF911F910F91089563
:10206000EF92FF920F931F93CF93DF93009709F4A2
:102070008FC0DC01129713961C921E921297E0906B
:102080004B03F0904C03E114F10489F42D913C9141
:102090001197280F391F8091490390914A038217A5
:1020A000930789F5B0934A03A093490371C0E701F0
:1020B00020E030E001C0EA01CA17DB0738F44A81AA
:1020C0005B819E0141155105B1F722C0BC016250F0
:1020D0007109FB01D383C28300811181AC01400FE0
:1020E000511F4C175D0761F448815981400F511F02
:1020F0004E5F5F4F518340834A815B8153834283AC
:102100002115310529F4B0934C03A0934B0340C033
:10211000F901B383A283E90169917991C60FD71FB1
:10212000AC17BD0779F4DC015E914E91460F571F45
:102130004E5F5F4F5183408312968D919C91139710
:1021400093838283A0E0B0E002C0D7017C01F70155
:10215000828193810097C9F7C7010296208131815E
:10216000820F931F2091490330914A0328173907A2
:1021700079F4109729F410924C0310924B0304C089
:1021800013961C921E921297F0924A03E092490312
:10219000CDB7DEB7E6E00C941C12A0E0B0E0E3EDB2
:1021A000F0E10C94FA11EC01009729F4CB010E94A4
:1021B000950FEC01B8C0DC01A60FB71FFC013297E8
:1021C000AE17BF0718F4C0E0D0E0ADC000811181A8
:1021D00006171707B0F00530110508F4A4C0C801B0
:1021E00004978617970708F49EC002501109061B32
:1021F000170B0D931D9371836083CD010E943010E6
:1022000092C07B01E01AF10A5C01A00EB11EE091C0
:102210004B03F0914C03812C912C80E090E04CC05A
:10222000EA15FB05F1F5408151816A0122E0C20EF9
:10223000D11CCE14DF04A8F19A012E193F097901AF
:10224000690132E0C30ED11C2EEFA22EBB24BA943A
:10225000AC0EBD1E25E0C216D10478F04281538138
:1022600013965C934E9312971196FC92EE92F501A1
:10227000718360833A2F2B2F09C00E5F1F4F040F0D
:10228000151FD5010D931C9332812381009721F0F6
:10229000FC013283238347C030934B0320934C03CC
:1022A00042C0808191818816990608F44C015281C0
:1022B0004381CF01E52FF42F309709F0B1CF809102
:1022C000490390914A038A159B05F1F486169706F7
:1022D000D8F48091000190910101009741F48DB7ED
:1022E0009EB72091040130910501821B930BA81722
:1022F000B90708F068CFB0934A03A0934903FE01E1
:102300003297718360830FC0CB010E94950F7C01CF
:10231000009709F458CFA801BE010E94C011CE0158
:102320000E943010E701CE01CDB7DEB7ECE00C948F
:1023300016121F93FC0199278827BC01E89411917C
:102340001032E9F3193010F01E30C8F31B3251F08F
:102350001D3249F4689406C00E94DF11610F711D9F
:10236000811D911D119110531A30B0F33EF49095D8
:102370008095709561957F4F8F4F9F4F1F91089566
:10238000FB01DC0102C001900D9241505040D8F792
:102390000895FB01DC0101900D920020E1F7089502
:1023A000FB01DC014150504048F001900D920020AB
:1023B000C9F701C01D9241505040E0F70895592FD0
:1023C000482F372F262F660F771F881F991F660FFC
:1023D000771F881F991F620F731F841F951F660F39
:1023E000771F881F991F08952F923F924F925F92F7
:1023F0006F927F928F929F92AF92BF92CF92DF9215
:10240000EF92FF920F931F93CF93DF93CDB7DEB779
:10241000CA1BDB0B0FB6F894DEBF0FBECDBF09940D
:102420002A88398848885F846E847D848C849B8464
:10243000AA84B984C884DF80EE80FD800C811B8172
:10244000AA81B981CE0FD11D0FB6F894DEBF0FBEA1
:10245000CDBFED01089510E0C2E8D0E004C0FE0158
:102460000E94910F2296C438D107C9F7F894FFCF84
:1024700000004D0320003132333430303030303002
:10248000303030303030303030303030303030304C
:10249000303030303030303030303030303030303C
:1024A000303030303030303030303030303030302C
:1024B000303030303030303030303030303030301C
:1024C00030303030303020202020010008090A044C
:1024D0000506073132333435363738392A3023018F
:1024E00001506F736963696F6E3A20000A00000043
:1024F00000001C060909CE05D305F905E705000013
:102500000000F40574067A0600000000EF05680676
:102510006E0601020304050607010200030004051C
:0825200006070001020305009B
:00000001FF
