:100000000C9442000C946A000C946A000C946A00F0
:100010000C946A000C946A000C946A000C946A00B8
:100020000C946A000C94CF0B0C94F80B0C94210CDC
:100030000C94C50C0C944A0C0C94730C0C949C0CF2
:100040000C94540B0C947D0B0C94A60B0C946A002E
:100050000C94BE080C9471060C946A000C946A000F
:100060000C946A000C946A000C946A000C946A0068
:100070000C9493080C94BF060C946A008E01E90856
:10008000010EA60111241FBECFEFD0E1DEBFCDBF10
:1000900011E0A0E0B1E0ECE4F4E202C005900D92C2
:1000A000AC35B107D9F712E0ACE5B1E001C01D9263
:1000B000AB3FB107E1F710E0C2E8D0E004C02297FF
:1000C000FE010E94690FCC37D107C9F70E94B8051D
:1000D0000C9419120C940000109276011092750184
:1000E00080E280930601809307018093080180934A
:1000F000090108950F931F93CF93DF93C0E0D0E0E1
:1001000081E08823A9F0FE01E370FF27EA5FFE4F3C
:100110000081112707FD1095BE018FEC91E00E9430
:100120009104282F30E081E00217130709F080E0E6
:100130009E0123703327232B29F4209719F0811176
:1001400006C081E02196C035D105D9F680E0DF9167
:10015000CF911F910F910895CF93DF9380E00E947C
:100160009F04BC01882777FD8095982F0E94160E6A
:100170002DEC3CEC4CEA50E40E94C60E20E030E04E
:1001800040E85AE30E94C60EFB01462F5F2F682FFE
:10019000792F409368015093690160936A017093CD
:1001A0006B012AE939E949E95FE36E2F7F2F0E944D
:1001B000100E18165CF0479A4AE050E064E070E0D8
:1001C00085E392E0DF91CF910C94F5094798DF9198
:1001D000CF9108954398449A459A0895439A449834
:1001E000459A0895439A449A45980895EF920F933B
:1001F000E12C01E028E040E855E260E070E085E3B2
:1002000092E00E9491073B9A3C9A3D9A3F9A0F9147
:10021000EF900C94F2000F931F93CF93DF93809194
:10022000CE01882309F475C080915E0190915F0131
:10023000009749F487EC91E00E94200B70935D01D8
:1002400060935C012EC08130910549F487EC91E008
:100250000E94200B709361016093600122C0823084
:10026000910549F487EC91E00E94200B70936301A3
:100270006093620116C08330910549F487EC91E0E8
:100280000E94200B70936501609364010AC004977B
:1002900089F487EC91E00E94200B709367016093D2
:1002A000660180915E0190915F01019690935F01DC
:1002B00080935E0180915E0190915F01059751F0FE
:1002C00065E171E087EC91E0DF91CF911F910F9193
:1002D0000C949D0A10925F0110925E0100E611E0FD
:1002E000C0E0D0E0F80140810E5F1F4F60915C01DB
:1002F00070915D01660F771F660F771F6C0F7D1F72
:100300008FEC91E00E9494042196C430D10551F7FE
:10031000D7CFDF91CF911F910F910895EF920F9357
:1003200065E171E087EC91E00E94800A93E0E92E9C
:1003300004E02CE031E04FE051E066E171E087E756
:1003400091E00E9465040F91EF90089587EC91E091
:100350000C940F0ACF93DF93D1E018C085E392E0AD
:100360000E94EA05C82F682F87EC91E00E94E30AFB
:10037000CA3061F420E030E042E350E065E971E02A
:1003800087EC91E00E94F60AD093CE0185E392E0DB
:100390000E94BF05892B11F7DF91CF9108950F932C
:1003A0001F930E94AC000E94AA010E940B01809141
:1003B0000A0190910B018130910569F024F4892B99
:1003C00009F49BC01FC18230910509F4D3C0039783
:1003D00009F018C1E8C00E94F200369918C01092C6
:1003E0006C0110920B0110920A014AE050E061E0AA
:1003F00070E085E392E00E94F5090E940405609395
:100400006D0170936E0180936F019093700187E787
:1004100091E00E941B03882309F4F4C0833221F485
:100420001F910F910C946C00209175013091760111
:10043000F901EA5FFE4F8083C9010196909376012E
:10044000809375010497C9F50E947A008823F1F022
:10045000109274011092730110920B0110920A0114
:1004600081E080936C014AE050E061E070E085E358
:1004700092E00E94F5090E94040560936D0170935B
:100480006E0180936F019093700115C081E090E040
:10049000909372018093710182E090E090930B0140
:1004A00080930A0180917301909174010196909359
:1004B0007401809373010E946C008091730190918C
:1004C0007401039709F09EC04AE050E062E070E0DA
:1004D00085E392E00E94F5098EE190E0909372012D
:1004E0008093710182E090E090930B0180930A0168
:1004F000109274011092730185C00E94EE0087E78C
:1005000091E00E941B038A3251F480916C01882390
:1005100031F081E090E090930B0180930A01369BCB
:1005200005C080916C01882309F458C00E9404051D
:1005300000916D0110916E0120916F013091700159
:10054000601B710B820B930B60337547810591051E
:1005500008F458C083E090E090930B0180930A0167
:100560004AE050E063E070E085E392E01F910F9174
:100570000C94F5090E94EA0080917101909172013A
:10058000892B09F439C068EE73E080E090E00E94A6
:1005900016058091710190917201019790937201FB
:1005A000809371012FC00E94EA0087E791E00E94CA
:1005B0001B038A3231F481E090E090930B01809329
:1005C0000A01369B04C080916C01882371F0369932
:1005D00019C080916C0181110FC014C081E090E0BE
:1005E00090930B0180930A01A1CF81E090E090935A
:1005F0000B0180930A01EBCF81E090E090930B0117
:1006000080930A011F910F910895DC0118968D9136
:100610009C9119978617970769F019967C936E93AA
:1006200018975C96ED91FC915D97309719F01A96AA
:100630008C91099408954F925F926F927F92AF923E
:10064000BF92CF92DF92EF92FF920F931F93CF93BF
:10065000DF93EC01A12CA8C00A2D10E0EC81FD81F4
:10066000E00FF11F60E080810E948A05B12C6801D3
:100670008EC0EB2CF12C8F81E881F981EC0DFD1DF2
:10068000B89EE00DF11D11249A85808198133CC01D
:100690000E9404054E845F8468887988641975090E
:1006A000860997094A8C5B8C612C712C6415750541
:1006B0008605970550F0EA81FB81EE0DFF1D8081D4
:1006C0000E946605882309F498C00E9404054E84A0
:1006D0005F84688879886419750986099709488C48
:1006E000598C612C712C641575058605970508F4E5
:1006F00093C0EA81FB81EB0DF11D80810E946605AC
:10070000813009F089C07FC00E9404054E845F8457
:10071000688879886419750986099709488C598C05
:10072000612C712C641575058605970578F1EA81B1
:10073000FB81EE0DFF1D80810E946605811126C0A0
:10074000EC81FD81E00FF11F61E080810E948A054C
:100750002F812E9DC0012F9D900D1124E881F981DC
:10076000EC0DFD1DE80FF91FF0808E859F85A8898F
:10077000B9898A8B9B8BAC8BBD8B0E9404056E87DD
:100780007F87888B998BF11015C005C0B3948E813B
:10079000B81608F46ECFEC81FD81E00FF11F61E027
:1007A00080810E948A05A3948F81A81608F454CFF3
:1007B00080E040C08B85F81239C00E9404050A8988
:1007C0001B892C893D89601B710B820B930B0E8951
:1007D0001F8920E030E0061717072807390710F5B2
:1007E00025C081E090E09D878C87FA8661E070E00B
:1007F000CE010E9405038A851DC063E070E0CE0132
:100800000E94050362CF62E070E0CE010E94050302
:100810008A858B871A86BFCF88859985039709F0CB
:10082000B5CFB9CF8C859D850196DDCF8A85F8122D
:10083000D8CFBECFDF91CF911F910F91FF90EF9056
:10084000DF90CF90BF90AF907F906F905F904F9070
:100850000895FF920F931F93CF93DF93EC01F12C38
:1008600013C00F2D10E0EA81FB81E00FF11F60E063
:1008700080810E943805EA81FB81E00FF11F61E071
:1008800080810E948A05F3948E81F81650F3F12C32
:1008900013C00F2D10E0EC81FD81E00FF11F61E02E
:1008A00080810E943805EC81FD81E00FF11F61E03D
:1008B00080810E948A05F3948F81F81650F3DF91AE
:1008C000CF911F910F91FF900895EF920F93FC012C
:1008D00053834283358324830683E7827183608355
:1008E00016861786108A118A128A138A148A158A24
:1008F0008CE291E0978B868B82E390E0918F808FE2
:1009000088EE93E0938F828F158E148E1286138655
:100910001186108615861486CF010F91EF900C94E6
:100920002904CB010C94CC11CB01642F0C94D4116D
:1009300080E480937C0087E880937A000895CF93C9
:10094000DF931F92CDB7DEB790911301913031F450
:1009500089830E94980410921301898187702091E5
:10096000140140E4249F90011124822B80937C0089
:1009700080917A00806480937A0080917A0086FD6D
:10098000FCCF2091780030917900932F80E0FC011A
:10099000E22B9F01C9010F90DF91CF9108958091C3
:1009A000D1019091D201A091D301B091D4013091A5
:1009B000D001232F2D5F2D3720F40196A11DB11DED
:1009C00005C0232F2A570296A11DB11D2093D001E7
:1009D0008093D1019093D201A093D301B093D4011D
:1009E0008091D5019091D601A091D701B091D80105
:1009F0000196A11DB11D8093D5019093D601A093BE
:100A0000D701B093D80108950F931F938FB7F8942F
:100A10000091D1011091D2012091D3013091D401E4
:100A20008FBFB801C9011F910F9108958F929F92B6
:100A3000AF92BF92CF92DF92EF92FF926B017C0157
:100A40000E9404054B015C010E94040568197909A4
:100A50008A099B096C157D058E059F05A8F3FF90FB
:100A6000EF90DF90CF90BF90AF909F908F900895C0
:100A7000982F977021E030E0092E01C0220F0A94D0
:100A8000EAF786958695869581F0813089F08230E7
:100A900091F08330D1F412C080812095822302C06E
:100AA0008081822B80839FBF0895EAE2F0E008C036
:100AB000E7E2F0E005C0E4E2F0E002C0E1E2F0E0ED
:100AC0009FB7F894662341F3EBCF0895982F977062
:100AD00021E030E001C0220F9A95EAF786958695CD
:100AE000869539F0813041F0823049F0833051F001
:100AF0000895E9E2F0E008C0E6E2F0E005C0E3E2D4
:100B0000F0E002C0E0E2F0E09081922381E009F49D
:100B100080E00895982F977021E030E0092E01C001
:100B2000220F0A94EAF786958695869581F08130A2
:100B300089F0823091F08330D1F412C08081209509
:100B4000822302C08081822B80839FBF0895EBE2C5
:100B5000F0E008C0E8E2F0E005C0E5E2F0E002C045
:100B6000E2E2F0E09FB7F894662341F3EBCF0895FB
:100B70000E942C0B0E94F6000E94CF01FDCFFC01C9
:100B800020893189C9010895DC0150962D913C914D
:100B90005197232B49F05496ED91FC915597E80F0E
:100BA000F91F268930E002C02FEF3FEFC9010895F9
:100BB000FC01118A108A158A148A138A128A0895F0
:100BC000FC0124813581C9010895FC01248135810E
:100BD000C9010895FC0180899189892BD1F03FB723
:100BE000F894808991890197918B808B848995896C
:100BF000DF01A80FB91F56962C91019680329105FE
:100C00001CF4958B848B02C0158A148A3FBF30E098
:100C100002C02FEF3FEFC9010895EF92FF921F939B
:100C2000CF93DF931F92CDB7DEB77C01D701DA9661
:100C30008D919C91DB974097C8F71FB7F894D69693
:100C4000ED91FC91D7970190F081E02DC701C696F8
:100C50006983099569814097C8F4F70182AD93AD26
:100C6000019693AF82AF84AD95ADE80FF91FE05CBC
:100C7000FF4F60830196D701DD969C938E93DC979E
:100C8000409724F0DD961C921E92DC97F701EA5AF9
:100C9000FF4F0190F081E02D8081806280831FBF33
:100CA00081E090E00F90DF91CF911F91FF90EF9046
:100CB0000895665F7F4F680F791FCB010895665FC7
:100CC0007F4F680F791FCB010895665F7F4F680FD4
:100CD000791FCB010895665F7F4F680F791FCB01A5
:100CE00008951F920F920FB60F9211242F938F9396
:100CF0009F93AF93BF93EF93FF9380916F02909177
:100D00007002892B21F1E0918F02F0919002809185
:100D10006F029091700201979093700280936F021E
:100D20008091730290917402DC01A559BD4F1A960F
:100D30002C910196803191052CF49093740280934C
:100D4000730204C010927402109273022083809187
:100D50006F0290917002892B31F4E0918B02F09137
:100D60008C0288E98083FF91EF91BF91AF919F91B1
:100D70008F912F910F900FBE0F901F9018951F927B
:100D80000F920FB60F9211242F938F939F93AF93CF
:100D9000BF93EF93FF938091130290911402892BDC
:100DA00021F1E0913302F09134028091130290918D
:100DB00014020197909314028093130280911702FA
:100DC00090911802DC01A15FBD4F1A962C910196FB
:100DD000803191052CF4909318028093170204C07F
:100DE00010921802109217022083809113029091A2
:100DF0001402892B31F4E0912F02F091300288E93E
:100E00008083FF91EF91BF91AF919F918F912F912F
:100E10000F900FBE0F901F901895FC01262F138284
:100E2000128248EE53E060E070E0448355836683AD
:100E3000778386E291E09183808386E391E09587D2
:100E4000848780E290E097878687118A108A158AC6
:100E5000148A138A128A80E491E097AB86AB80E112
:100E600090E091AF80AF13AE12AE17AE16AE15AED6
:100E700014AE222321F0213009F052C028C0DF0136
:100E8000A05BBF4F85EC90E08D939C93DF01AE5A41
:100E9000BF4F84EC90E08D939C93DF01AC5ABF4F21
:100EA00080EC90E08D939C93DF01AA5ABF4F81ECB8
:100EB00090E08D939C93DF01A85ABF4F82EC90E0A5
:100EC0008D939C93E65AFF4F86EC90E027C0DF019C
:100ED000A05BBF4F8DEC90E08D939C93DF01AE5AE9
:100EE000BF4F8CEC90E08D939C93DF01AC5ABF4FC9
:100EF00088EC90E08D939C93DF01AA5ABF4F89EC58
:100F000090E08D939C93DF01A85ABF4F8AEC90E04C
:100F10008D939C93E65AFF4F8EEC90E091838083F3
:100F200008953F924F925F926F927F928F929F921D
:100F3000AF92BF92CF92DF92EF92FF920F931F93E7
:100F4000CF93DF93EC014A015B01122F3E2C60E04E
:100F500072E18AE790E0A50194010E94290F6901DE
:100F60007A0184E0C80ED11CE11CF11C83E0F694E8
:100F7000E794D794C7948A95D1F760E074E284EF40
:100F800090E0A50194010E94290F29013A0194E003
:100F9000490E511C611C711C93E076946794579420
:100FA00047949A95D1F7A30192014427552760E809
:100FB00074E88EE190E00E944B0F5901A818B9081F
:100FC000B7FE03C0B194A194B108A70196014427CC
:100FD000552760E472E48FE090E00E944B0F2819DF
:100FE000390937FF03C0319521953109FE01EC5ACB
:100FF000FF4F0190F081E02DA216B3063CF482E091
:101000008083620181E0C81AD10804C0108291E097
:10101000C91AD1081630C1F018F4153099F405C07A
:10102000173029F0193071F404C080E00EC084E05C
:101030000CC0FE01EA5AFF4F0190F081E02D808143
:101040008460808386E001C082E0023009F4886019
:1010500091E0391621F092E0391204C002C0806399
:1010600001C08062FE01E85AFF4F0190F081E02D3F
:101070008083FE01E05BFF4F0190F081E02DD08284
:10108000FE01EE5AFF4F0190F081E02DC082CA5A56
:10109000DF4FE881F98188E98083DF91CF911F914B
:1010A0000F91FF90EF90DF90CF90BF90AF909F9007
:1010B0008F907F906F905F904F903F9008950F9327
:1010C0001F93CF93DF931F92CDB7DEB78C01DC0166
:1010D000ED91FC910190F081E02D69830995698182
:1010E0008097D0F4F801848195810196958384835B
:1010F00086819781E80FF91F6287019680329105FA
:1011000034F4D80117969C938E93169703C0F80178
:101110001782168281E001C080E00F90DF91CF91AD
:101120001F910F9108951F920F920FB60F921124E5
:101130002F933F934F935F936F937F938F939F93DF
:10114000AF93BF93EF93FF93E0913302F09134029A
:10115000608185EE91E00E945F08FF91EF91BF9161
:10116000AF919F918F917F916F915F914F913F913F
:101170002F910F900FBE0F901F9018951F920F92F6
:101180000FB60F9211242F933F934F935F936F935A
:101190007F938F939F93AF93BF93EF93FF93E091D0
:1011A0008F02F0919002608181E492E00E945F08DA
:1011B000FF91EF91BF91AF919F918F917F916F912F
:1011C0005F914F913F912F910F900FBE0F901F9005
:1011D000189560E085E392E00E940D0761E089EDDB
:1011E00091E00C940D07CF92DF92EF92FF920F9354
:1011F0001F93CF93DF936C01EB017A01E60EF71E8C
:1012000000E010E00BC06991D601ED91FC910190D6
:10121000F081E02DC6010995080F191FCE15DF05D5
:1012200091F7C801DF91CF911F910F91FF90EF903F
:10123000DF90CF9008956115710581F0DB010D906D
:101240000020E9F7AD0141505109461B570BDC0165
:10125000ED91FC910280F381E02D099480E090E013
:101260000895DC01ED91FC910190F081E02D09944D
:101270000F931F93CF93DF93EC016DE00E94310930
:101280008C016AE0CE010E9431099C01200F311FC0
:10129000C901DF91CF911F910F9108954F925F92F5
:1012A0006F927F929F92AF92BF92CF92DF92EF9216
:1012B000FF920F931F93CF93DF93CDB7DEB7A19724
:1012C0000FB6F894DEBF0FBECDBF5C016A017B0193
:1012D000922E19A281E0821710F08AE0982E8E01DA
:1012E0000F5D1F4F492C512C612C712CC701B60189
:1012F000A30192010E94290F8C2D929E8019112426
:10130000015011098A3014F4805D01C0895CF80134
:10131000808369017A01C114D104E104F10431F739
:10132000B801C5010E941B09A1960FB6F894DEBF53
:101330000FBECDBFDF91CF911F910F91FF90EF9026
:10134000DF90CF90BF90AF909F907F906F905F9015
:101350004F900895CF92DF92EF92FF920F931F93D9
:10136000CF93DF93EC016A017B012115310579F4FC
:10137000E881F9810190F081E02D642FDF91CF9118
:101380001F910F91FF90EF90DF90CF9009942A303A
:10139000310519F477FD0EC02AE0B701A601CE0190
:1013A000DF91CF911F910F91FF90EF90DF90CF9041
:1013B0000C944E096DE20E9431098C014427552797
:1013C000BA014C195D096E097F092AE0CE010E941D
:1013D0004E09080F191FC801DF91CF911F910F917E
:1013E000FF90EF90DF90CF9008950F931F93CF93CE
:1013F000DF93EC019A01AB01662757FD6095762FCC
:101400000E94AA098C01CE010E9438099801280F78
:10141000391FC901DF91CF911F910F910895FC01F0
:10142000808191810C940810CF93DF93EC01888127
:101430009981009711F00E940810198218821D826C
:101440001C821B821A82DF91CF9108950F931F9304
:10145000CF93DF93EC018B016F5F7F4F8881998180
:101460000E94A510009731F0998388831B830A831B
:1014700081E001C080E0DF91CF911F910F9108952D
:10148000CF93DF93EC0188819981892B31F08A8198
:101490009B818617970708F00CC0CE010E94260A90
:1014A000882349F08C819D81892B19F4E881F98189
:1014B000108281E001C080E0DF91CF910895EF922A
:1014C000FF920F931F93CF93DF93EC017B018A016F
:1014D000BA010E94400A811104C0CE010E94140A80
:1014E00007C01D830C83B701888199810E94A111D7
:1014F000CE01DF91CF911F910F91FF90EF90089552
:10150000DC0111961C921E9213961C921E92129749
:1015100015961C921E92149716961C9261157105D1
:1015200059F0DB010D900020E9F7AD014150510960
:10153000461B570B0C945F0A0895CF93DF93D82F67
:10154000C92F6115710561F0DB010D900020E9F7ED
:10155000AD0141505109461B570B0E945F0A02C062
:101560000E94140A8D2F9C2FDF91CF910895EF9246
:10157000FF920F931F93CF93DF93EC017B010C81BC
:101580001D816115710511F480E016C041155105EA
:1015900091F0040F151FB8010E94400A8823A1F39F
:1015A000288139818C819D81B701820F931F0E9410
:1015B000A1111D830C8381E0DF91CF911F910F91C9
:1015C000FF90EF900895CF93DF9300D0CDB7DEB7B3
:1015D00069831A8241E050E0BE016F5F7F4F0E9435
:1015E000B70A0F900F90DF91CF9108950F931F933B
:1015F000CF93DF93EB0141155105E9F02097D9F026
:10160000FC01048115812017310708F013C04150F7
:101610005109021B130B4017510708F48A01FC0102
:1016200060817181620F731FA801CE010E94A81111
:10163000C00FD11F1882DF91CF911F910F91089594
:10164000FC0180819181009711F00C94711160E090
:1016500070E080E090E0089563E085ED92E00E9404
:10166000EB0D21E04FEC54E060E085ED92E00E944C
:10167000C10D64E085ED92E00E94EE0C61E083EB29
:1016800092E00E94EB0D64E083EB92E00E94EE0C8E
:1016900061E081E992E00E94EB0D64E081E992E073
:1016A0000E94EE0C789408951F920F920FB60F923D
:1016B00011242F933F934F935F936F937F938F9357
:1016C0009F93AF93BF93EF93FF93E091EF02F0915D
:1016D000F002309709F00995FF91EF91BF91AF911A
:1016E0009F918F917F916F915F914F913F912F913A
:1016F0000F900FBE0F901F9018951F920F920FB66C
:101700000F9211242F933F934F935F936F937F9387
:101710008F939F93AF93BF93EF93FF93E091F10269
:10172000F091F202309709F00995FF91EF91BF9186
:10173000AF919F918F917F916F915F914F913F9169
:101740002F910F900FBE0F901F9018951F920F9220
:101750000FB60F9211242F933F934F935F936F9384
:101760007F938F939F93AF93BF93EF93FF93E091FA
:10177000ED02F091EE02309709F00995FF91EF919B
:10178000BF91AF919F918F917F916F915F914F9199
:101790003F912F910F900FBE0F901F9018951F92A1
:1017A0000F920FB60F9211242F933F934F935F9395
:1017B0006F937F938F939F93AF93BF93EF93FF9319
:1017C000E091AB02F091AC02309709F00995FF91DE
:1017D000EF91BF91AF919F918F917F916F915F91A9
:1017E0004F913F912F910F900FBE0F901F90189522
:1017F0001F920F920FB60F9211242F933F934F9386
:101800005F936F937F938F939F93AF93BF93EF9368
:10181000FF93E091AD02F091AE02309709F0099587
:10182000FF91EF91BF91AF919F918F917F916F91B8
:101830005F914F913F912F910F900FBE0F901F908E
:1018400018951F920F920FB60F9211242F933F936A
:101850004F935F936F937F938F939F93AF93BF93B8
:10186000EF93FF93E091A902F091AA02309709F05B
:101870000995FF91EF91BF91AF919F918F917F91CA
:101880006F915F914F913F912F910F900FBE0F90ED
:101890001F9018951F920F920FB60F9211242F933D
:1018A0003F934F935F936F937F938F939F93AF93E8
:1018B000BF93EF93FF93E091CD02F091CE0230976A
:1018C00009F00995FF91EF91BF91AF919F918F9191
:1018D0007F916F915F914F913F912F910F900FBE2C
:1018E0000F901F9018951F920F920FB60F92112410
:1018F0002F933F934F935F936F937F938F939F9318
:10190000AF93BF93EF93FF93E091CF02F091D0029A
:10191000309709F00995FF91EF91BF91AF919F9199
:101920008F917F916F915F914F913F912F910F9088
:101930000FBE0F901F9018951F920F920FB60F9227
:1019400011242F933F934F935F936F937F938F93C4
:101950009F93AF93BF93EF93FF93E091CB02F091EE
:10196000CC02309709F00995FF91EF91BF91AF91AB
:101970009F918F917F916F915F914F913F912F91A7
:101980000F900FBE0F901F9018951F920F920FB6D9
:101990000F9211242F933F934F935F936F937F93F5
:1019A0008F939F93AF93BF93EF93FF93E091D302F5
:1019B000F091D402309709F00995FF91EF91BF9112
:1019C000AF919F918F917F916F915F914F913F91D7
:1019D0002F910F900FBE0F901F901895DC012C9146
:1019E0006150223039F4673068F4E62FF0E0EA5BAA
:1019F000FE4F06C0693030F4E62FF0E0E35BFE4FA7
:101A0000208101C020E0DC011A96ED91FC911B972A
:101A10008081887F822B80830895CF93DF93EC01B0
:101A20006883613011F120F0623009F06CC048C069
:101A30001B821A8286E490E09D838C838EE690E080
:101A40009F838E8384E490E09987888785E490E083
:101A50009B878A871D861C8687E490E09F878E87F8
:101A6000198A188A88E490E022C08FE690E09F836C
:101A70008E8385E890E09B838A8384E890E09D8351
:101A80008C8380E890E09987888781E890E09B8745
:101A90008A8789E890E09D878C8788E890E09F8717
:101AA0008E878BE890E0998B888B8AE890E09B8BFF
:101AB0008A8B1D8A1C8A1F8A1E8A82E0898323C022
:101AC0001B821A8282EB90E09D838C8380E790E0FA
:101AD0009F838E8380EB90E09987888781EB90E0ED
:101AE0009B878A871D861C8683EB90E09F878E8765
:101AF000198A188A84EB90E09B8B8A8B1D8A1C8A3A
:101B00001F8A1E8A698360E0CE010E94EE0CEA8182
:101B1000FB81309709F01082EC81FD811082198ED3
:101B2000188E1B8E1A8E1D8E1C8E1F8E1E8E19A255
:101B300018A2DF91CF91089551E0411101C050E00A
:101B40006530F0F4E62FF0E0EA5AFE4F408147FDA1
:101B500017C0DC011696ED91FC911797808121E06A
:101B600030E0042E01C0220F0A94EAF720952823C2
:101B7000852F042E01C0880F0A94EAF7282B2083B2
:101B80000895623099F028F4662341F06130C9F479
:101B900009C0633079F06430A1F410C0FC01518FAA
:101BA000408F0FC0FC01538F428F0BC0FC01558F3B
:101BB000448F07C0FC01578F468F03C0FC0151A31F
:101BC00040A3452B11F440E003C0222319F041E06B
:101BD0000C949C0D0895DC011896ED91FC911997D9
:101BE0003081262F23703C7F232B20831A96ED9182
:101BF000FC911B9780816C70660F877E682B6083D9
:101C0000089560E085ED92E00E940D0D61E083EBA8
:101C100092E00E940D0D62E081E992E00C940D0DBE
:101C200040D008F481E00895E89409C097FB3EF4A1
:101C300090958095709561957F4F8F4F9F4F992319
:101C4000A9F0F92F96E9BB279395F6958795779597
:101C50006795B795F111F8CFFAF4BB0F11F460FF57
:101C60001BC06F5F7F4F8F4F9F4F16C0882311F0AF
:101C700096E911C0772321F09EE8872F762F05C0C3
:101C8000662371F096E8862F70E060E02AF09A955E
:101C9000660F771F881FDAF7880F9695879597F953
:101CA0000895990F0008550FAA0BE0E8FEEF1616ED
:101CB0001706E807F907C0F012161306E407F50740
:101CC00098F0621B730B840B950B39F40A2661F0B4
:101CD000232B242B252B21F408950A2609F4A14057
:101CE000A6958FEF811D811D089597F99F6780E864
:101CF00070E060E008959FEF80EC089500240A945E
:101D00001616170618060906089500240A941216D6
:101D10001306140605060895092E0394000C11F409
:101D2000882352F0BB0F40F4BF2B11F460FF04C0B6
:101D30006F5F7F4F8F4F9F4F089557FD9058440F0F
:101D4000551F59F05F3F71F04795880F97FB991F1A
:101D500061F09F3F79F087950895121613061406D7
:101D6000551FF2CF4695F1DF08C016161706180664
:101D7000991FF1CF86957105610508940895E8943F
:101D8000BB2766277727CB0197F908950BD0C4CFDF
:101D9000B5DF28F0BADF18F0952309F0A6CFABCF56
:101DA0001124EECFCADFA0F3959FD1F3950F50E039
:101DB000551F629FF001729FBB27F00DB11D639FFD
:101DC000AA27F00DB11DAA1F649F6627B00DA11DA3
:101DD000661F829F2227B00DA11D621F739FB00D49
:101DE000A11D621F839FA00D611D221F749F3327B9
:101DF000A00D611D231F849F600D211D822F762F52
:101E00006A2F11249F5750408AF0E1F088234AF04E
:101E1000EE0FFF1FBB1F661F771F881F915050409A
:101E2000A9F79E3F510570F060CFAACF5F3FECF35A
:101E3000983EDCF3869577956795B795F795E79586
:101E40009F5FC1F7FE2B880F911D9695879597F997
:101E50000895A1E21A2EAA1BBB1BFD010DC0AA1FEB
:101E6000BB1FEE1FFF1FA217B307E407F50720F003
:101E7000A21BB30BE40BF50B661F771F881F991F7E
:101E80001A9469F760957095809590959B01AC01C7
:101E9000BD01CF010895052E97FB16F4009407D0DD
:101EA00057FD0DD00E94290F07FC09D07EF49095B4
:101EB0008095709561957F4F8F4F9F4F08955095F6
:101EC0004095309521953F4F4F4F5F4F0895EE0F4E
:101ED000FF1F0590F491E02D09940F931F93CF936A
:101EE000DF938230910510F482E090E0E091F902F6
:101EF000F091FA0220E030E0C0E0D0E023C0408161
:101F0000518148175907A8F04817590761F4828191
:101F10009381209719F09B838A832EC09093FA02B5
:101F20008093F90229C02115310529F04217530782
:101F300010F0A90102C0BE01DF0102811381EF018F
:101F40009A01F8013097D9F62115310509F1281BBE
:101F5000390B2430310590F412968D919C91139792
:101F60006115710521F0FB019383828304C0909376
:101F7000FA028093F902FD01329644C0FD01E20F9E
:101F8000F31F81939193225031092D933C933AC0D2
:101F90002091F7023091F802232B41F420910201A5
:101FA000309103013093F8022093F7022091000151
:101FB000309101012115310541F42DB73EB7409113
:101FC000040150910501241B350BE091F702F091BB
:101FD000F802E217F307A0F42E1B3F0B281739076E
:101FE00078F0AC014E5F5F4F2417350748F04E0F75
:101FF0005F1F5093F8024093F7028193919302C0C0
:10200000E0E0F0E0CF01DF91CF911F910F910895B3
:10201000EF92FF920F931F93CF93DF93009709F4F2
:102020008FC0DC01129713961C921E921297E090BB
:10203000F902F090FA02E114F10489F42D913C9137
:102040001197280F391F8091F7029091F80282179B
:10205000930789F5B093F802A093F70271C0E701E6
:1020600020E030E001C0EA01CA17DB0738F44A81FA
:102070005B819E0141155105B1F722C0BC01625040
:102080007109FB01D383C28300811181AC01400F30
:10209000511F4C175D0761F448815981400F511F52
:1020A0004E5F5F4F518340834A815B8153834283FC
:1020B0002115310529F4B093FA02A093F90240C02A
:1020C000F901B383A283E90169917991C60FD71F02
:1020D000AC17BD0779F4DC015E914E91460F571F96
:1020E0004E5F5F4F5183408312968D919C91139761
:1020F00093838283A0E0B0E002C0D7017C01F701A6
:10210000828193810097C9F7C701029620813181AE
:10211000820F931F2091F7023091F8022817390798
:1021200079F4109729F41092FA021092F90204C07F
:1021300013961C921E921297F092F802E092F70208
:10214000CDB7DEB7E6E00C940A12A0E0B0E0EBEA0F
:10215000F0E10C94E811EC01009729F4CB010E9406
:102160006D0FEC01B8C0DC01A60FB71FFC01329760
:10217000AE17BF0718F4C0E0D0E0ADC000811181F8
:1021800006171707B0F00530110508F4A4C0C80100
:1021900004978617970708F49EC002501109061B82
:1021A000170B0D931D9371836083CD010E9408105E
:1021B00092C07B01E01AF10A5C01A00EB11EE09111
:1021C000F902F091FA02812C912C80E090E04CC051
:1021D000EA15FB05F1F5408151816A0122E0C20E4A
:1021E000D11CCE14DF04A8F19A012E193F09790100
:1021F000690132E0C30ED11C2EEFA22EBB24BA948B
:10220000AC0EBD1E25E0C216D10478F04281538188
:1022100013965C934E9312971196FC92EE92F501F1
:10222000718360833A2F2B2F09C00E5F1F4F040F5D
:10223000151FD5010D931C9332812381009721F046
:10224000FC013283238347C03093F9022093FA02C2
:1022500042C0808191818816990608F44C01528110
:102260004381CF01E52FF42F309709F0B1CF809152
:10227000F7029091F8028A159B05F1F486169706ED
:10228000D8F48091000190910101009741F48DB73D
:102290009EB72091040130910501821B930BA81772
:1022A000B90708F068CFB093F802A093F702FE01D7
:1022B0003297718360830FC0CB010E946D0F7C0148
:1022C000009709F458CFA801BE010E949811CE01D1
:1022D0000E940810E701CE01CDB7DEB7ECE00C9408
:1022E00004121F93FC0199278827BC01E8941191DF
:1022F0001032E9F3193010F01E30C8F31B3251F0E0
:102300001D3249F4689406C00E94B711610F711D17
:10231000811D911D119110531A30B0F33EF4909528
:102320008095709561957F4F8F4F9F4F1F910895B6
:10233000FB01DC0102C001900D9241505040D8F7E2
:102340000895FB01DC0101900D920020E1F7089552
:10235000FB01DC014150504048F001900D920020FB
:10236000C9F701C01D9241505040E0F70895592F20
:10237000482F372F262F660F771F881F991F660F4C
:10238000771F881F991F620F731F841F951F660F89
:10239000771F881F991F0895F999FECF92BD81BDBF
:1023A000F89A992780B50895262FF999FECF1FBA7C
:1023B00092BD81BD20BD0FB6F894FA9AF99A0FBE6E
:1023C000019608952F923F924F925F926F927F9263
:1023D0008F929F92AF92BF92CF92DF92EF92FF9235
:1023E0000F931F93CF93DF93CDB7DEB7CA1BDB0BE1
:1023F0000FB6F894DEBF0FBECDBF09942A88398886
:1024000048885F846E847D848C849B84AA84B9848C
:10241000C884DF80EE80FD800C811B81AA81B98198
:10242000CE0FD11D0FB6F894DEBF0FBECDBFED01AC
:10243000089510E0C2E8D0E004C0FE010E94690FD8
:0C2440002296C438D107C9F7F894FFCFEA
:10244C000000FB02200020202020010008090A04C3
:10245C000506070101003132333435363738392A55
:10246C003023000000000D06F308BF05C405EA0583
:10247C00D80500000000E50565066B0600000000AD
:10248C00E00559065F060102030405060701020078
:0C249C0003000405060700010203050010
:00000001FF
