:100000000C9442000C946A000C946A000C946A00F0
:100010000C946A000C946A000C946A000C946A00B8
:100020000C946A000C94BD0B0C94E60B0C940F0C12
:100030000C94B30C0C94380C0C94610C0C948A0C3A
:100040000C94420B0C946B0B0C94940B0C946A0064
:100050000C9477080C942A060C946A000C946A009D
:100060000C946A000C946A000C946A000C946A0068
:100070000C944C080C9478060C946A004701A20872
:10008000EF0D5F0111241FBECFEFD0E1DEBFCDBF6A
:1000900011E0A0E0B1E0E8E2F4E202C005900D92C8
:1000A000AC35B107D9F712E0ACE5B1E001C01D9263
:1000B000A23FB107E1F710E0C2E8D0E004C0229708
:1000C000FE010E94570FCC37D107C9F70E94710576
:1000D0000C9407120C94000010926D0110926C01A8
:1000E00080E280930601809307018093080180934A
:1000F00009010895FF920F931F93CF93DF93C0E000
:10010000D0E08E0103701127F801EA5FFE4FF08006
:10011000BE0186EC91E00E944A04012B41F42F2D90
:10012000332727FD309590E02817390731F02196C5
:10013000C035D10531F780E001C081E0DF91CF917A
:100140001F910F91FF900895CF93DF9380E00E945D
:100150005804BC01882777FD8095982F0E94040ED3
:100160002DEC3CEC4CEA50E40E94B40E20E030E070
:1001700040E85AE30E94B40EFB01462F5F2F682F20
:10018000792F40935F0150936001609361017093F8
:1001900062012AE939E949E95FE36E2F7F2F0E9466
:1001A000FE0D18165CF0479A4AE050E064E070E0FB
:1001B0008CE292E0DF91CF910C94D0094798DF91C7
:1001C000CF9108954398449A459A0895439A449844
:1001D000459A0895439A449A45980895EF920F934B
:1001E000E12C01E028E040E855E260E070E08CE2BC
:1001F00092E00E944A073B9A3C9A3D9A3F9A0F919F
:10020000EF900C94EA00CF93DF938091C50188238F
:10021000D9F16EEB71E08CE292E00E941509109228
:10022000C50180915E01811110C08EEB91E00E94AA
:100230000E0B660F771F660F771F70935D0160933B
:100240005C0181E080935E0117C0C0E0D0E0BE0198
:100250008EEB91E00E94E20A482F405360915C01CE
:1002600070915D016C0F7D1F86EC91E00E944D0442
:100270002196C430D10559F765E171E08EEB91E02C
:10028000DF91CF910C94780ADF91CF910895EF928E
:100290000F9365E171E08EEB91E00E945B0A93E0C1
:1002A000E92E04E02CE031E04FE051E066E171E03E
:1002B0008EE691E00E941E040F91EF9008958EEB60
:1002C00091E00C94EA09CF93DF93D1E018C08CE25F
:1002D00092E00E94A305C82F682F8EEB91E00E9448
:1002E000BE0ACA3061F420E030E042E350E06CE83E
:1002F00071E08EEB91E00E94E40AD093C5018CE29C
:1003000092E00E947805892B11F7DF91CF91089533
:100310000F931F930E94A4000E9463010E94030197
:1003200080910A0190910B018130910569F024F4CC
:10033000892B09F49BC01FC18230910509F4D3C0F9
:10034000039709F018C1E8C00E94EA00369918C066
:100350001092630110920B0110920A014AE050E0E2
:1003600061E070E08CE292E00E94D0090E94BD043E
:1003700060936401709365018093660190936701B7
:100380008EE691E00E94D402882309F4F4C08332FF
:1003900021F41F910F910C946C0020916C0130910D
:1003A0006D01F901EA5FFE4F8083C90101969093C8
:1003B0006D0180936C010497C9F50E947A0088232F
:1003C000F1F010926B0110926A0110920B011092E1
:1003D0000A0181E0809363014AE050E061E070E04F
:1003E0008CE292E00E94D0090E94BD0460936401F7
:1003F00070936501809366019093670115C081E059
:1004000090E0909369018093680182E090E090937E
:100410000B0180930A0180916A0190916B01019612
:1004200090936B0180936A010E946C0080916A0135
:1004300090916B01039709F09EC04AE050E062E0A2
:1004400070E08CE292E00E94D0098EE190E09093FF
:1004500069018093680182E090E090930B018093A2
:100460000A0110926B0110926A0185C00E94E60099
:100470008EE691E00E94D4028A3251F480916301A9
:10048000882331F081E090E090930B0180930A0182
:10049000369B05C080916301882309F458C00E94EF
:1004A000BD040091640110916501209166013091B5
:1004B0006701601B710B820B930B603375478105DD
:1004C000910508F458C083E090E090930B0180936D
:1004D0000A014AE050E063E070E08CE292E01F9194
:1004E0000F910C94D0090E94E200809168019091D4
:1004F0006901892B09F439C068EE73E080E090E06F
:100500000E94CF04809168019091690101979093B6
:100510006901809368012FC00E94E2008EE691E09D
:100520000E94D4028A3231F481E090E090930B0172
:1005300080930A01369B04C080916301882371F087
:10054000369919C08091630181110FC014C081E0F8
:1005500090E090930B0180930A01A1CF81E090E09D
:1005600090930B0180930A01EBCF81E090E0909390
:100570000B0180930A011F910F910895DC011896D9
:100580008D919C9119978617970769F019967C931E
:100590006E9318975C96ED91FC915D97309719F0EA
:1005A0001A968C91099408954F925F926F927F9260
:1005B000AF92BF92CF92DF92EF92FF920F931F9371
:1005C000CF93DF93EC01A12CA8C00A2D10E0EC81A1
:1005D000FD81E00FF11F60E080810E944305B12C96
:1005E00068018EC0EB2CF12C8F81E881F981EC0D34
:1005F000FD1DB89EE00DF11D11249A858081981390
:100600003CC00E94BD044E845F8468887988641968
:100610007509860997094A8C5B8C612C712C6415CD
:1006200075058605970550F0EA81FB81EE0DFF1DEB
:1006300080810E941F05882309F498C00E94BD0490
:100640004E845F84688879886419750986099709DA
:10065000488C598C612C712C64157505860597059D
:1006600008F493C0EA81FB81EB0DF11D80810E94AB
:100670001F05813009F089C07FC00E94BD044E84EF
:100680005F84688879886419750986099709488C98
:10069000598C612C712C641575058605970578F1C8
:1006A000EA81FB81EE0DFF1D80810E941F058111F3
:1006B00026C0EC81FD81E00FF11F61E080810E9486
:1006C00043052F812E9DC0012F9D900D1124E8819F
:1006D000F981EC0DFD1DE80FF91FF0808E859F85D7
:1006E000A889B9898A8B9B8BAC8BBD8B0E94BD047A
:1006F0006E877F87888B998BF11015C005C0B394E6
:100700008E81B81608F46ECFEC81FD81E00FF11FE9
:1007100061E080810E944305A3948F81A81608F4AC
:1007200054CF80E040C08B85F81239C00E94BD04D0
:100730000A891B892C893D89601B710B820B930BE5
:100740000E891F8920E030E00617170728073907B0
:1007500010F525C081E090E09D878C87FA8661E0E6
:1007600070E0CE010E94BE028A851DC063E070E089
:10077000CE010E94BE0262CF62E070E0CE010E9414
:10078000BE028A858B871A86BFCF88859985039795
:1007900009F0B5CFB9CF8C859D850196DDCF8A85CF
:1007A000F812D8CFBECFDF91CF911F910F91FF905C
:1007B000EF90DF90CF90BF90AF907F906F905F9061
:1007C0004F900895FF920F931F93CF93DF93EC0107
:1007D000F12C13C00F2D10E0EA81FB81E00FF11F17
:1007E00060E080810E94F104EA81FB81E00FF11F4B
:1007F00061E080810E944305F3948E81F81650F3E6
:10080000F12C13C00F2D10E0EC81FD81E00FF11FE2
:1008100061E080810E94F104EC81FD81E00FF11F15
:1008200061E080810E944305F3948F81F81650F3B4
:10083000DF91CF911F910F91FF900895EF920F9349
:10084000FC0153834283358324830683E7827183CB
:10085000608316861786108A118A128A138A148A70
:10086000158A8CE291E0978B868B82E390E0918FE2
:10087000808F88EE93E0938F828F158E148E128670
:1008800013861186108615861486CF010F91EF907E
:100890000C94E203CB010C94BA11CB01642F0C949D
:1008A000C21180E480937C0087E880937A000895E9
:1008B000CF93DF931F92CDB7DEB7909113019130A4
:1008C00031F489830E945104109213018981877049
:1008D0002091140140E4249F90011124822B8093E5
:1008E0007C0080917A00806480937A0080917A0005
:1008F00086FDFCCF2091780030917900932F80E025
:10090000FC01E22B9F01C9010F90DF91CF91089567
:100910008091C8019091C901A091CA01B091CB0109
:100920003091C701232F2D5F2D3720F40196A11D93
:10093000B11D05C0232F2A570296A11DB11D20937A
:10094000C7018093C8019093C901A093CA01B093D5
:10095000CB018091CC019091CD01A091CE01B091BD
:10096000CF010196A11DB11D8093CC019093CD01C3
:10097000A093CE01B093CF0108950F931F938FB72B
:10098000F8940091C8011091C9012091CA013091D9
:10099000CB018FBFB801C9011F910F9108958F92AC
:1009A0009F92AF92BF92CF92DF92EF92FF926B0134
:1009B0007C010E94BD044B015C010E94BD046819CA
:1009C00079098A099B096C157D058E059F05A8F399
:1009D000FF90EF90DF90CF90BF90AF909F908F905F
:1009E0000895982F977021E030E0092E01C0220F62
:1009F0000A94EAF786958695869581F0813089F08C
:100A0000823091F08330D1F412C08081209582230E
:100A100002C08081822B80839FBF0895EAE2F0E0CC
:100A200008C0E7E2F0E005C0E4E2F0E002C0E1E285
:100A3000F0E09FB7F894662341F3EBCF0895982F29
:100A4000977021E030E001C0220F9A95EAF7869571
:100A50008695869539F0813041F0823049F08330B7
:100A600051F00895E9E2F0E008C0E6E2F0E005C0E8
:100A7000E3E2F0E002C0E0E2F0E09081922381E066
:100A800009F480E00895982F977021E030E0092E56
:100A900001C0220F0A94EAF786958695869581F023
:100AA000813089F0823091F08330D1F412C080819E
:100AB0002095822302C08081822B80839FBF08956E
:100AC000EBE2F0E008C0E8E2F0E005C0E5E2F0E0CB
:100AD00002C0E2E2F0E09FB7F894662341F3EBCF67
:100AE00008950E941A0B0E94EE000E948801FDCF1B
:100AF000FC0120893189C9010895DC0150962D91AE
:100B00003C915197232B49F05496ED91FC915597C8
:100B1000E80FF91F268930E002C02FEF3FEFC9012F
:100B20000895FC01118A108A158A148A138A128A80
:100B30000895FC0124813581C9010895FC012481B7
:100B40003581C9010895FC0180899189892BD1F0F3
:100B50003FB7F894808991890197918B808B848924
:100B60009589DF01A80FB91F56962C910196803206
:100B700091051CF4958B848B02C0158A148A3FBFA3
:100B800030E002C02FEF3FEFC9010895EF92FF92CE
:100B90001F93CF93DF931F92CDB7DEB77C01D701B0
:100BA000DA968D919C91DB974097C8F71FB7F89420
:100BB000D696ED91FC91D7970190F081E02DC70179
:100BC000C6966983099569814097C8F4F70182AD9B
:100BD00093AD019693AF82AF84AD95ADE80FF91F49
:100BE000E05CFF4F60830196D701DD969C938E9366
:100BF000DC97409724F0DD961C921E92DC97F7015B
:100C0000EA5AFF4F0190F081E02D8081806280835D
:100C10001FBF81E090E00F90DF91CF911F91FF9077
:100C2000EF900895665F7F4F680F791FCB0108959D
:100C3000665F7F4F680F791FCB010895665F7F4F16
:100C4000680F791FCB010895665F7F4F680F791F8A
:100C5000CB0108951F920F920FB60F9211242F937C
:100C60008F939F93AF93BF93EF93FF93809166020F
:100C700090916702892B21F1E0918602F091870221
:100C8000809166029091670201979093670280932A
:100C9000660280916A0290916B02DC01AE59BD4FF1
:100CA0001A962C910196803191052CF490936B0249
:100CB00080936A0204C010926B0210926A02208331
:100CC0008091660290916702892B31F4E091820253
:100CD000F091830288E98083FF91EF91BF91AF91FA
:100CE0009F918F912F910F900FBE0F901F9018958D
:100CF0001F920F920FB60F9211242F938F939F93F1
:100D0000AF93BF93EF93FF9380910A0290910B02F0
:100D1000892B21F1E0912A02F0912B0280910A02A5
:100D200090910B02019790930B0280930A0280919D
:100D30000E0290910F02DC01AA5FBD4F1A962C9112
:100D40000196803191052CF490930F0280930E024E
:100D500004C010920F0210920E02208380910A02AA
:100D600090910B02892B31F4E0912602F091270239
:100D700088E98083FF91EF91BF91AF919F918F910F
:100D80002F910F900FBE0F901F901895FC01262FEA
:100D90001382128248EE53E060E070E04483558392
:100DA0006683778386E291E09183808386E391E096
:100DB0009587848780E290E097878687118A108ADA
:100DC000158A148A138A128A80E491E097AB86AB65
:100DD00080E190E091AF80AF13AE12AE17AE16AEC9
:100DE00015AE14AE222321F0213009F052C028C0E4
:100DF000DF01A05BBF4F85EC90E08D939C93DF01FA
:100E0000AE5ABF4F84EC90E08D939C93DF01AC5AB7
:100E1000BF4F80EC90E08D939C93DF01AA5ABF4FA7
:100E200081EC90E08D939C93DF01A85ABF4F82EC38
:100E300090E08D939C93E65AFF4F86EC90E027C09C
:100E4000DF01A05BBF4F8DEC90E08D939C93DF01A1
:100E5000AE5ABF4F8CEC90E08D939C93DF01AC5A5F
:100E6000BF4F88EC90E08D939C93DF01AA5ABF4F4F
:100E700089EC90E08D939C93DF01A85ABF4F8AECD8
:100E800090E08D939C93E65AFF4F8EEC90E0918317
:100E9000808308953F924F925F926F927F928F92DC
:100EA0009F92AF92BF92CF92DF92EF92FF920F93F9
:100EB0001F93CF93DF93EC014A015B01122F3E2C6D
:100EC00060E072E18AE790E0A50194010E94170FAB
:100ED00069017A0184E0C80ED11CE11CF11C83E099
:100EE000F694E794D794C7948A95D1F760E074E2BA
:100EF00084EF90E0A50194010E94170F29013A01A7
:100F000094E0490E511C611C711C93E07694679427
:100F1000579447949A95D1F7A301920144275527F6
:100F200060E874E88EE190E00E94390F5901A8183A
:100F3000B908B7FE03C0B194A194B108A701960106
:100F40004427552760E472E48FE090E00E94390F57
:100F50002819390937FF03C0319521953109FE0160
:100F6000EC5AFF4F0190F081E02DA216B3063CF43D
:100F700082E08083620181E0C81AD10804C0108237
:100F800091E0C91AD1081630C1F018F4153099F45F
:100F900005C0173029F0193071F404C080E00EC08C
:100FA00084E00CC0FE01EA5AFF4F0190F081E02D71
:100FB00080818460808386E001C082E0023009F491
:100FC000886091E0391621F092E0391204C002C025
:100FD000806301C08062FE01E85AFF4F0190F081FA
:100FE000E02D8083FE01E05BFF4F0190F081E02D5A
:100FF000D082FE01EE5AFF4F0190F081E02DC082B9
:10100000CA5ADF4FE881F98188E98083DF91CF9167
:101010001F910F91FF90EF90DF90CF90BF90AF9016
:101020009F908F907F906F905F904F903F9008952A
:101030000F931F93CF93DF931F92CDB7DEB78C0131
:10104000DC01ED91FC910190F081E02D698309951F
:1010500069818097D0F4F801848195810196958308
:10106000848386819781E80FF91F62870196803219
:10107000910534F4D80117969C938E93169703C06C
:10108000F8011782168281E001C080E00F90DF91A5
:10109000CF911F910F9108951F920F920FB60F924B
:1010A00011242F933F934F935F936F937F938F936D
:1010B0009F93AF93BF93EF93FF93E0912A02F09138
:1010C0002B0260818CED91E00E941808FF91EF9156
:1010D000BF91AF919F918F917F916F915F914F9150
:1010E0003F912F910F900FBE0F901F9018951F9258
:1010F0000F920FB60F9211242F933F934F935F934C
:101100006F937F938F939F93AF93BF93EF93FF93CF
:10111000E0918602F0918702608188E392E00E946C
:101120001808FF91EF91BF91AF919F918F917F919F
:101130006F915F914F913F912F910F900FBE0F9044
:101140001F90189560E08CE292E00E94C60661E074
:1011500080ED91E00C94C606CF92DF92EF92FF9261
:101160000F931F93CF93DF936C01EB017A01E60E8F
:10117000F71E00E010E00BC06991D601ED91FC91E3
:101180000190F081E02DC6010995080F191FCE15B9
:10119000DF0591F7C801DF91CF911F910F91FF906B
:1011A000EF90DF90CF9008956115710581F0DB011C
:1011B0000D900020E9F7AD0141505109461B570B36
:1011C000DC01ED91FC910280F381E02D099480E037
:1011D00090E00895DC01ED91FC910190F081E02D0B
:1011E0000994DC01ED91FC91DB0114964D915C9129
:1011F00015976D917C910280F381E02D09940F93F6
:101200001F93CF93DF93EC016DE00E94EA088C01FD
:101210006AE0CE010E94EA089C01200F311FC9013B
:10122000DF91CF911F910F9108950F931F93CF934B
:10123000DF93EC010E94F1088C01CE010E94FF08AF
:101240009C01200F311FC901DF91CF911F910F9198
:1012500008954F925F926F927F929F92AF92BF924A
:10126000CF92DF92EF92FF920F931F93CF93DF9372
:10127000CDB7DEB7A1970FB6F894DEBF0FBECDBFD6
:101280005C016A017B01922E19A281E0821710F0A5
:101290008AE0982E8E010F5D1F4F492C512C612C36
:1012A000712CC701B601A30192010E94170F8C2D6A
:1012B000929E80191124015011098A3014F4805D26
:1012C00001C0895CF801808369017A01C114D104ED
:1012D000E104F10431F7B801C5010E94D408A196D8
:1012E0000FB6F894DEBF0FBECDBFDF91CF911F9137
:1012F0000F91FF90EF90DF90CF90BF90AF909F90B5
:101300007F906F905F904F900895CF92DF92EF9211
:10131000FF920F931F93CF93DF93EC016A017B0140
:101320002115310579F4E881F9810190F081E02DF2
:10133000642FDF91CF911F910F91FF90EF90DF907D
:10134000CF9009942A30310519F477FD0EC02AE0B8
:10135000B701A601CE01DF91CF911F910F91FF90B0
:10136000EF90DF90CF900C9429096DE20E94EA087B
:101370008C0144275527BA014C195D096E097F0974
:101380002AE0CE010E942909080F191FC801DF9128
:10139000CF911F910F91FF90EF90DF90CF90089524
:1013A0000F931F93CF93DF93EC019A01AB01662754
:1013B00057FD6095762F0E9485098C01CE010E9411
:1013C000FF089801280F391FC901DF91CF911F91A4
:1013D0000F910895FC01808191810C94F60FCF93B9
:1013E000DF93EC0188819981009711F00E94F60F3C
:1013F000198218821D821C821B821A82DF91CF9172
:1014000008950F931F93CF93DF93EC018B016F5FD0
:101410007F4F888199810E949310009731F09983C2
:1014200088831B830A8381E001C080E0DF91CF9134
:101430001F910F910895CF93DF93EC0188819981DB
:10144000892B31F08A819B818617970708F00CC0A1
:10145000CE010E94010A882349F08C819D81892B4D
:1014600019F4E881F981108281E001C080E0DF9108
:10147000CF910895EF92FF920F931F93CF93DF9335
:10148000EC017B018A01BA010E941B0A811104C090
:10149000CE010E94EF0907C01D830C83B70188812C
:1014A00099810E948F11CE01DF91CF911F910F91F1
:1014B000FF90EF900895DC0111961C921E921396F6
:1014C0001C921E92129715961C921E9214971696B5
:1014D0001C926115710559F0DB010D900020E9F7B0
:1014E000AD0141505109461B570B0C943A0A08951F
:1014F000CF93DF93D82FC92F6115710561F0DB0100
:101500000D900020E9F7AD0141505109461B570BE2
:101510000E943A0A02C00E94EF098D2F9C2FDF9192
:10152000CF910895EF92FF920F931F93CF93DF9384
:10153000EC017B010C811D816115710511F480E0C6
:1015400016C04115510591F0040F151FB8010E94F6
:101550001B0A8823A1F3288139818C819D81B701E1
:10156000820F931F0E948F111D830C8381E0DF91F6
:10157000CF911F910F91FF90EF900895CF93DF933C
:1015800000D0CDB7DEB769831A8241E050E0BE01DA
:101590006F5F7F4F0E94920A0F900F90DF91CF9163
:1015A0000895FC01248135816217730748F4808116
:1015B0009181009729F0FC01E60FF71F80810895C3
:1015C00080E008950C94D10A0F931F93CF93DF937B
:1015D000EB0141155105E9F02097D9F0FC01048198
:1015E00015812017310708F013C041505109021B23
:1015F000130B4017510708F48A01FC0160817181C7
:10160000620F731FA801CE010E949611C00FD11F57
:101610001882DF91CF911F910F910895FC01808175
:101620009181009711F00C945F1160E070E080E010
:1016300090E0089563E08CEC92E00E94D90D21E0E7
:1016400048E854E060E08CEC92E00E94AF0D64E06A
:101650008CEC92E00E94DC0C61E08AEA92E00E944D
:10166000D90D64E08AEA92E00E94DC0C61E088E82F
:1016700092E00E94D90D64E088E892E00E94DC0CC0
:10168000789408951F920F920FB60F9211242F9302
:101690003F934F935F936F937F938F939F93AF93FA
:1016A000BF93EF93FF93E091E602F091E70230974A
:1016B00009F00995FF91EF91BF91AF919F918F91A3
:1016C0007F916F915F914F913F912F910F900FBE3E
:1016D0000F901F9018951F920F920FB60F92112422
:1016E0002F933F934F935F936F937F938F939F932A
:1016F000AF93BF93EF93FF93E091E802F091E9027B
:10170000309709F00995FF91EF91BF91AF919F91AB
:101710008F917F916F915F914F913F912F910F909A
:101720000FBE0F901F9018951F920F920FB60F9239
:1017300011242F933F934F935F936F937F938F93D6
:101740009F93AF93BF93EF93FF93E091E402F091E7
:10175000E502309709F00995FF91EF91BF91AF91A4
:101760009F918F917F916F915F914F913F912F91B9
:101770000F900FBE0F901F9018951F920F920FB6EB
:101780000F9211242F933F934F935F936F937F9307
:101790008F939F93AF93BF93EF93FF93E091A20238
:1017A000F091A302309709F00995FF91EF91BF9155
:1017B000AF919F918F917F916F915F914F913F91E9
:1017C0002F910F900FBE0F901F9018951F920F92A0
:1017D0000FB60F9211242F933F934F935F936F9304
:1017E0007F938F939F93AF93BF93EF93FF93E0917A
:1017F000A402F091A502309709F00995FF91EF91AD
:10180000BF91AF919F918F917F916F915F914F9118
:101810003F912F910F900FBE0F901F9018951F9220
:101820000F920FB60F9211242F933F934F935F9314
:101830006F937F938F939F93AF93BF93EF93FF9398
:10184000E091A002F091A102309709F00995FF9173
:10185000EF91BF91AF919F918F917F916F915F9128
:101860004F913F912F910F900FBE0F901F901895A1
:101870001F920F920FB60F9211242F933F934F9305
:101880005F936F937F938F939F93AF93BF93EF93E8
:10189000FF93E091C402F091C502309709F00995D9
:1018A000FF91EF91BF91AF919F918F917F916F9138
:1018B0005F914F913F912F910F900FBE0F901F900E
:1018C00018951F920F920FB60F9211242F933F93EA
:1018D0004F935F936F937F938F939F93AF93BF9338
:1018E000EF93FF93E091C602F091C702309709F0A1
:1018F0000995FF91EF91BF91AF919F918F917F914A
:101900006F915F914F913F912F910F900FBE0F906C
:101910001F9018951F920F920FB60F9211242F93BC
:101920003F934F935F936F937F938F939F93AF9367
:10193000BF93EF93FF93E091C202F091C3023097FF
:1019400009F00995FF91EF91BF91AF919F918F9110
:101950007F916F915F914F913F912F910F900FBEAB
:101960000F901F9018951F920F920FB60F9211248F
:101970002F933F934F935F936F937F938F939F9397
:10198000AF93BF93EF93FF93E091CA02F091CB0224
:10199000309709F00995FF91EF91BF91AF919F9119
:1019A0008F917F916F915F914F913F912F910F9008
:1019B0000FBE0F901F901895DC012C9161502230C2
:1019C00039F4673068F4E62FF0E0EA5BFE4F06C0BA
:1019D000693030F4E62FF0E0E35BFE4F208101C078
:1019E00020E0DC011A96ED91FC911B978081887FA5
:1019F000822B80830895CF93DF93EC01688361305D
:101A000011F120F0623009F06CC048C01B821A82CC
:101A100086E490E09D838C838EE690E09F838E83A6
:101A200084E490E09987888785E490E09B878A87A3
:101A30001D861C8687E490E09F878E87198A188A06
:101A400088E490E022C08FE690E09F838E8385E853
:101A500090E09B838A8384E890E09D838C8380E878
:101A600090E09987888781E890E09B878A8789E85A
:101A700090E09D878C8788E890E09F878E878BE831
:101A800090E0998B888B8AE890E09B8B8A8B1D8AEB
:101A90001C8A1F8A1E8A82E0898323C01B821A82C5
:101AA00082EB90E09D838C8380E790E09F838E8320
:101AB00080EB90E09987888781EB90E09B878A870D
:101AC0001D861C8683EB90E09F878E87198A188A73
:101AD00084EB90E09B8B8A8B1D8A1C8A1F8A1E8A4E
:101AE000698360E0CE010E94DC0CEA81FB813097C3
:101AF00009F01082EC81FD811082198E188E1B8EE8
:101B00001A8E1D8E1C8E1F8E1E8E19A218A2DF919A
:101B1000CF91089551E0411101C050E06530F0F4DB
:101B2000E62FF0E0EA5AFE4F408147FD17C0DC0186
:101B30001696ED91FC911797808121E030E0042EFC
:101B400001C0220F0A94EAF720952823852F042E3E
:101B500001C0880F0A94EAF7282B20830895623089
:101B600099F028F4662341F06130C9F409C063306C
:101B700079F06430A1F410C0FC01518F408F0FC088
:101B8000FC01538F428F0BC0FC01558F448F07C05F
:101B9000FC01578F468F03C0FC0151A340A3452B86
:101BA00011F440E003C0222319F041E00C948A0DA7
:101BB0000895DC011896ED91FC9119973081262F3C
:101BC00023703C7F232B20831A96ED91FC911B9769
:101BD00080816C70660F877E682B6083089560E05B
:101BE0008CEC92E00E94FB0C61E08AEA92E00E9499
:101BF000FB0C62E088E892E00C94FB0C40D008F407
:101C000081E00895E89409C097FB3EF49095809593
:101C1000709561957F4F8F4F9F4F9923A9F0F92FB2
:101C200096E9BB279395F695879577956795B79530
:101C3000F111F8CFFAF4BB0F11F460FF1BC06F5F16
:101C40007F4F8F4F9F4F16C0882311F096E911C028
:101C5000772321F09EE8872F762F05C0662371F049
:101C600096E8862F70E060E02AF09A95660F771F5D
:101C7000881FDAF7880F9695879597F90895990F39
:101C80000008550FAA0BE0E8FEEF16161706E80746
:101C9000F907C0F012161306E407F50798F0621B67
:101CA000730B840B950B39F40A2661F0232B242B3C
:101CB000252B21F408950A2609F4A140A6958FEF5B
:101CC000811D811D089597F99F6780E870E060E0AD
:101CD00008959FEF80EC089500240A9416161706C5
:101CE00018060906089500240A941216130614060D
:101CF00005060895092E0394000C11F4882352F070
:101D0000BB0F40F4BF2B11F460FF04C06F5F7F4F27
:101D10008F4F9F4F089557FD9058440F551F59F00E
:101D20005F3F71F04795880F97FB991F61F09F3FC8
:101D300079F087950895121613061406551FF2CFF1
:101D40004695F1DF08C0161617061806991FF1CF41
:101D500086957105610508940895E894BB27662768
:101D60007727CB0197F908950BD0C4CFB5DF28F0C2
:101D7000BADF18F0952309F0A6CFABCF1124EECF30
:101D8000CADFA0F3959FD1F3950F50E0551F629FD6
:101D9000F001729FBB27F00DB11D639FAA27F00DC4
:101DA000B11DAA1F649F6627B00DA11D661F829FEB
:101DB0002227B00DA11D621F739FB00DA11D621FD0
:101DC000839FA00D611D221F749F3327A00D611DED
:101DD000231F849F600D211D822F762F6A2F1124CF
:101DE0009F5750408AF0E1F088234AF0EE0FFF1F22
:101DF000BB1F661F771F881F91505040A9F79E3F59
:101E0000510570F060CFAACF5F3FECF3983EDCF352
:101E1000869577956795B795F795E7959F5FC1F795
:101E2000FE2B880F911D9695879597F90895A1E24D
:101E30001A2EAA1BBB1BFD010DC0AA1FBB1FEE1F44
:101E4000FF1FA217B307E407F50720F0A21BB30B8F
:101E5000E40BF50B661F771F881F991F1A9469F70B
:101E600060957095809590959B01AC01BD01CF0167
:101E70000895052E97FB16F4009407D057FD0DD05A
:101E80000E94170F07FC09D07EF4909580957095FD
:101E900061957F4F8F4F9F4F089550954095309596
:101EA00021953F4F4F4F5F4F0895EE0FFF1F059055
:101EB000F491E02D09940F931F93CF93DF93823019
:101EC000910510F482E090E0E091F002F091F102CF
:101ED00020E030E0C0E0D0E023C0408151814817CD
:101EE0005907A8F04817590761F482819381209718
:101EF00019F09B838A832EC09093F1028093F002A5
:101F000029C02115310529F04217530710F0A90106
:101F100002C0BE01DF0102811381EF019A01F801C5
:101F20003097D9F62115310509F1281B390B2430DA
:101F3000310590F412968D919C911397611571055E
:101F400021F0FB019383828304C09093F10280937C
:101F5000F002FD01329644C0FD01E20FF31F8193B0
:101F60009193225031092D933C933AC02091EE0277
:101F70003091EF02232B41F42091020130910301B3
:101F80003093EF022093EE02209100013091010185
:101F90002115310541F42DB73EB740910401509110
:101FA0000501241B350BE091EE02F091EF02E217E0
:101FB000F307A0F42E1B3F0B2817390778F0AC016C
:101FC0004E5F5F4F2417350748F04E0F5F1F509349
:101FD000EF024093EE028193919302C0E0E0F0E0C3
:101FE000CF01DF91CF911F910F910895EF92FF9252
:101FF0000F931F93CF93DF93009709F48FC0DC01F9
:10200000129713961C921E921297E090F002F09095
:10201000F102E114F10489F42D913C911197280FFC
:10202000391F8091EE029091EF028217930789F594
:10203000B093EF02A093EE0271C0E70120E030E020
:1020400001C0EA01CA17DB0738F44A815B819E01AF
:1020500041155105B1F722C0BC0162507109FB0165
:10206000D383C28300811181AC01400F511F4C17F3
:102070005D0761F448815981400F511F4E5F5F4FEA
:10208000518340834A815B8153834283211531050B
:1020900029F4B093F102A093F00240C0F901B38398
:1020A000A283E90169917991C60FD71FAC17BD07CB
:1020B00079F4DC015E914E91460F571F4E5F5F4FE2
:1020C0005183408312968D919C91139793838283C1
:1020D000A0E0B0E002C0D7017C01F70182819381CA
:1020E0000097C9F7C701029620813181820F931FA3
:1020F0002091EE023091EF022817390779F41097FA
:1021000029F41092F1021092F00204C013961C926E
:102110001E921297F092EF02E092EE02CDB7DEB778
:10212000E6E00C94F811A0E0B0E0E9E9F0E10C94ED
:10213000D611EC01009729F4CB010E945B0FEC0152
:10214000B8C0DC01A60FB71FFC013297AE17BF075E
:1021500018F4C0E0D0E0ADC0008111810617170768
:10216000B0F00530110508F4A4C0C8010497861723
:10217000970708F49EC002501109061B170B0D9318
:102180001D9371836083CD010E94F60F92C07B0185
:10219000E01AF10A5C01A00EB11EE091F002F0918C
:1021A000F102812C912C80E090E04CC0EA15FB05F7
:1021B000F1F5408151816A0122E0C20ED11CCE149A
:1021C000DF04A8F19A012E193F097901690132E073
:1021D000C30ED11C2EEFA22EBB24BA94AC0EBD1E92
:1021E00025E0C216D10478F04281538113965C93A6
:1021F0004E9312971196FC92EE92F50171836083D3
:102200003A2F2B2F09C00E5F1F4F040F151FD5014A
:102210000D931C9332812381009721F0FC013283BE
:10222000238347C03093F0022093F10242C08081A3
:1022300091818816990608F44C0152814381CF019F
:10224000E52FF42F309709F0B1CF8091EE029091F5
:10225000EF028A159B05F1F486169706D8F4809153
:10226000000190910101009741F48DB79EB7209134
:10227000040130910501821B930BA817B90708F0E0
:1022800068CFB093EF02A093EE02FE013297718304
:1022900060830FC0CB010E945B0F7C01009709F4A3
:1022A00058CFA801BE010E948611CE010E94F60FF0
:1022B000E701CE01CDB7DEB7ECE00C94F2111F932D
:1022C000FC0199278827BC01E89411911032E9F3A9
:1022D000193010F01E30C8F31B3251F01D3249F492
:1022E000689406C00E94A511610F711D811D911D8A
:1022F000119110531A30B0F33EF49095809570957B
:1023000061957F4F8F4F9F4F1F910895FB01DC0117
:1023100002C001900D9241505040D8F70895FB0142
:10232000DC0101900D920020E1F70895FB01DC0132
:102330004150504048F001900D920020C9F701C073
:102340001D9241505040E0F70895592F482F372FE4
:10235000262F660F771F881F991F660F771F881F0C
:10236000991F620F731F841F951F660F771F881FA9
:10237000991F0895F999FECF92BD81BDF89A9927CA
:1023800080B50895262FF999FECF1FBA92BD81BD61
:1023900020BD0FB6F894FA9AF99A0FBE01960895E7
:1023A0002F923F924F925F926F927F928F929F9265
:1023B000AF92BF92CF92DF92EF92FF920F931F9353
:1023C000CF93DF93CDB7DEB7CA1BDB0B0FB6F89404
:1023D000DEBF0FBECDBF09942A88398848885F8444
:1023E0006E847D848C849B84AA84B984C884DF80B5
:1023F000EE80FD800C811B81AA81B981CE0FD11D99
:102400000FB6F894DEBF0FBECDBFED01089510E00A
:10241000C2E8D0E004C0FE010E94570F2296C438E3
:08242000D107C9F7F894FFCFC2
:102428000000F202200020202020010008090A04F0
:102438000506070101003132333435363738392A79
:10244800302300000000C605AC0878057D05A3050B
:102458009105000000009E051E06240600000000ED
:102468009905120618060102030405060701020071
:0C24780003000405060700010203050034
:00000001FF
